:020000040800F2
:10000000C01300209D0100080505000855040008E4
:10001000E9040008E5020008AD0700080000000040
:10002000000000000000000000000000690500085A
:10003000B101000800000000190500087D05000856
:10004000B7010008B7010008B7010008B7010008B0
:10005000B7010008B701000879030008F1030008A0
:10006000B7010008B7010008B7010008B701000890
:10007000B7010008B701000801030008B701000834
:10008000B701000825030008B7010008B701000800
:10009000B7010008B7010008B70100081D040008F7
:1000A000B7010008B7010008B7010008B701000850
:1000B000B7010008090600082D060008B70100086E
:1000C000B7010008B7010008B701000831050008B2
:1000D000B7010008E1060008E5060008450700082A
:1000E000A5030008B7010008B7010008B701000820
:1000F000B906000891060008B7010008B70100081A
:10010000B7010008B7010008B7010008B7010008EF
:10011000B7010008B7010008510600086D06000885
:1001200051030008B7010008B7010008B701000833
:10013000B7010008B7010008B7010008B7010008BF
:10014000B7010008B7010008B7010008B7010008AF
:10015000B7010008B7010008B7010008A9070008A7
:10016000B7010008B7010008B7010008B70100088F
:10017000B7010008B7010008B7010008000000003F
:10018000B7010008B7010008DFF80CD000F04AF80A
:1001900000480047ED150008C013002006488047BE
:1001A00006480047FEE7FEE7FEE7FEE7FEE7FEE75C
:1001B000FEE7FEE7FEE7FEE7ED050008890100081F
:1001C0002DE9F05F0546002092469B46884606468C
:1001D000814640241BE0284641464746224600F01F
:1001E00042F853465A46C01A914110D31146184658
:1001F000224600F029F82D1A67EB01084F462246E7
:100200000120002100F020F817EB00094E41201ECC
:10021000A4F10104DFDC484631462A464346BDE8E6
:10022000F09F0000064C074D06E0E06840F0010337
:1002300094E8070098471034AC42F6D3FFF7A8FFC4
:100240000426000824260008202A04DB203A00FAAD
:1002500002F1002070479140C2F1200320FA03F31D
:10026000194390407047202A04DB203A21FA02F01B
:100270000021704721FA02F3D040C2F120029140E0
:1002800008431946704770B58D1810F8014B14F0EB
:10029000030201D110F8012B231106D110F8013B04
:1002A00003E010F8016B01F8016B521EF9D1ABB1FC
:1002B00010F8012B04F00C048A1A0C2C03D0A2EBCA
:1002C00084129B1C08E010F8014BA2EB0422F8E713
:1002D00012F8014B01F8014B5B1EF9D5A942D4D3AA
:1002E000002070BD02A000F06FFA00F0C7FA000015
:1002F000655F4275734661756C74200A00000000EA
:100300000648806840F07460044988604DF2CF5020
:100310000349486201200860C860704700600240DD
:10032000001000400848C06840F474100649C860D6
:100330004DF2CF5005490860012004492439086076
:1003400002491839086070470060024024040040E8
:100350003D20064908600120054908600020054944
:1003600088820120C87200204882704708640240D9
:1003700008220140280F00200748806828B107485C
:1003800000680549C860012008600548006840F021
:100390000100034908607047400F0020241C004002
:1003A000143C014000B51148026802F4004008B155
:1003B00000F05AF802F4005008B100F05DF802F4C1
:1003C000805008B100F060F802F4006008B100F05D
:1003D00063F802F4806008B100F066F80348006832
:1003E00040F43C400149086000BD0000143C01405D
:1003F0000748806828B10748406A0549C86001205D
:1004000008600548006840F0020003490860704732
:10041000640F002000200040143C014000B50C484F
:10042000026802F4007008B100F046F802F480702F
:1004300008B100F049F802F0800008B100F04CF873
:100440000348006840F460700149086000BD000086
:10045000143C014002A000F0B7F900F00FFA0000D0
:10046000655F4846200A000002480068401C0149B8
:10047000086070470C04002002480068401C0149D5
:10048000086070471004002002480068401C0149C1
:10049000086070471404002002480068401C0149AD
:1004A000086070471804002002480068401C014999
:1004B000086070471C04002002480068401C014985
:1004C000086070472004002002480068401C014971
:1004D000086070472404002002480068401C01495D
:1004E000086070472804002002A000F06DF900F0B9
:1004F000C5F90000655F4D656D4D616E61676520F2
:100500000A00000002A000F05FF900F0B7F9000057
:10051000655F4E4D49200A0002A000F055F900F039
:10052000ADF90000655F50656E645356200A000007
:100530000B48C0680B49B1F800110A4A50541046E4
:10054000B0F8001100F58470405C0549C8601046A1
:10055000B0F80001401C1146A1F8000170470000EE
:1005600000300140E806002002A000F02DF900F064
:1005700085F90000655F535643200A0010B51948FD
:10058000018A008A401C174A1082622926DD16481B
:10059000806C401C144988640846406C401C4864C8
:1005A00010460068401C114608600F48806CB4215A
:1005B000B0FBF1F201FB120010B90120094988805B
:1005C00000BF012007498872887501F075FD01F0B0
:1005D0007DFD00F035FC00200249088201F0FCFEA0
:1005E00010BD0000280F00203806002005480068D4
:1005F00040F47000034908604FF000600149803901
:100600000860704788ED00E0002006490860054951
:10061000103908600349091F08604FF080700249D3
:100620008861704710040040000002400020064925
:1006300008600549103908600349091F0860012056
:10064000024988737047000010080040280F0020FE
:100650000020044908610860C86008040249086075
:1006600070470000001000401804024000200649B6
:1006700008600549103908600349091F0860012016
:10068000024948737047000010140040280F0020F2
:1006900000200749486207484068401C05494860F7
:1006A0000846806810B10249486B00BF70470000DF
:1006B00000200040640F0020002007490860074820
:1006C0004068401C054948600846806818B10249E6
:1006D0001031086800BF7047241C0040400F002004
:1006E00070470000144800681449D1F804110870DC
:1006F0001248D0F80401401C1049C1F80401084612
:10070000B0F80001401C80B2A1F80001B0F5807F74
:1007100005D90020A1F800010846C1F8040141F6FE
:100720004F20074908600120054924390860044921
:10073000183908607047000004440040080B00208E
:1007400024080040144800681449D1F804110870C6
:100750001248D0F80401401C1049C1F804011048A7
:10076000B0F80001401C80B20D49A1F80001B0F5BD
:10077000807F05D90020A1F800010846C1F80401D6
:1007800041F64F20074908600120064924390860D6
:10079000044918390860704704480040F8080020F0
:1007A000180D0020241400407047000002A000F043
:1007B0000BF800F063F80000655F557361676546EC
:1007C00061756C74200A00000FB4054B10B503A9C5
:1007D000044A029800F09AF810BC5DF814FB00007F
:1007E000A51000083406002000280DDB00BF00BF64
:1007F00000F01F02012191404209920002F1E02223
:10080000C2F8001100BF00BF704700280DDB00BF19
:1008100000BF00F01F02012191404209920002F145
:10082000E022C2F8001100BF00BF704710B50028D9
:1008300004DB0A07130E054A135406E00A07140ED8
:10084000034A00F00F031B1FD45410BD00E400E066
:1008500018ED00E010B5002804DB0A07130E054A66
:10086000135406E00A07140E034A00F00F031B1F7F
:10087000D45410BD00E400E018ED00E0BFF34F8F4A
:100880000648006800F4E06005490843001D03497C
:100890000860BFF34F8F00BF00BFFDE70CED00E025
:1008A0000000FA0502E008C8121F08C1002AFAD1A8
:1008B00070477047002001E001C1121F002AFBD1E0
:1008C0007047F0B541F6583300260446A4FB0327D1
:1008D00001FB037300FB0631104600BF0A460346C6
:1008E000401E61F1000100256B406A401343F5D1C1
:1008F000F0BD30B500BF0A460346401E61F100015D
:1009000000256B406A401343F5D130BD2DE9FF4F00
:100910008DB00F460546002606E025280BD0DDE900
:100920000F1290476D1C761C28780028F5D111B065
:100930003046BDE8F08F0024A246A1460122EC49D2
:1009400000E0044315F8013F203B02FA03F008429F
:10095000F7D128782A2810D06FF02F022878A0F13C
:100960003001092914D80AEB8A0102EB410144F055
:10097000020400EB010A6D1CF0E701CF5FEA000AF8
:1009800003D544F40054CAF1000A44F002046D1C7B
:1009900028782E2817D115F8010F44F004042A28CE
:1009A0000ED06FF02F022878A0F1300109290AD863
:1009B00009EB890102EB410100EB01096D1CF2E733
:1009C00057F8049B6D1C28786C280FD006DC4C2847
:1009D00017D068280DD06A2814D104E0742810D0EC
:1009E0007A280FD10DE044F400140AE044F4801496
:1009F00001E044F440146978814202D104F5801486
:100A00006D1C6D1C2A786E2A1FD00CDC632A31D035
:100A100004DC002A8BD0582A11D1A3E0642A68D0C4
:100A2000692A0CD165E0732A2ED004DC6F2A73D0BA
:100A3000702A04D19BE0752A6FD0782A6ED01046B8
:100A4000DDE90F129047761C50E1C4F302500228F2
:100A500006D0032809D0042801CF09D0066045E15B
:100A600001CFF117C0E9006140E101CF06803DE10F
:100A700006703BE117F8040B8DF8000000208DF89C
:100A80000100EB46012003E057F804BB4FF0FF30B4
:100A900061074FF0000102D40DE008F10101884622
:100AA00049450FDA8045F8DB1BF808100029F4D11E
:100AB00008E008F1010188468142FADB1BF80810C2
:100AC0000029F6D1DDE90F23AAEB08008146214673
:100AD00000F036F9304400EB080604E0DDE90F12BF
:100AE0001BF8010B9047B8F10108F7D221464846A0
:100AF000F7E00A21C4F302534FF0000B0891022BD8
:100B000004D001CFC117032B09D00AE0FF1D27F045
:100B10000707F7E8020108E032E01FE020E000B23A
:100B2000C117042B01D140B2C117031E71F100039C
:100B300007DA4FF0000CD0EB0C006CEB01012D2319
:100B400002E0230504D52B238DF82430012303E094
:100B5000E30701D02023F7E7984658E00A2110E088
:100B600010210EE010204FF0000B08900CE0102137
:100B70004FF0000B44F004044FF00809089103E023
:100B800008214FF0000B0891C4F30253022B04D04C
:100B900001CF0021032B06D006E0FF1D27F0070739
:100BA000F7E8020103E080B2042B00D1C0B24FF09D
:100BB000000823072BD5702A07D0DDF820C08CF061
:100BC000100C5CEA0B0C05D00EE040238DF82430AD
:100BD000012308E050EA010306D030238DF82430C9
:100BE0008DF8252002239846DDF820C08CF0080CF3
:100BF0005CEA0B0C0BD150EA010301D1630706D567
:100C000030238DF824304FF00108A9F10109582A4A
:100C100004D038A20B9208AA0A920BE03AA2F9E794
:100C20005B46089AFFF7CCFA0B9B9B5C0A9A521E14
:100C30000A92137050EA0102F2D10A98ADEB00005B
:100C400000F1200B600702D524F4803401E04FF05E
:100C50000109D94502DDA9EB0B0000E0002000EB03
:100C60000B0141440890AAEB010AE00306D4DDE938
:100C70000F232146504600F063F806444FF0000968
:100C800008E009A911F80900DDE90F12904709F100
:100C90000109761CC145F4DBE0030CD5DDE90F2327
:100CA0002146504600F04CF8064404E0DDE90F12FE
:100CB00030209047761C0899481E08900029F5DCE2
:100CC00008E00A980A990078491C0A91DDE90F1298
:100CD0009047761CBBF10001ABF1010BF1DC214622
:100CE0005046DDE90F2300F019F806446D1C1BE6A1
:100CF00009280100303132333435363738396162F2
:100D000063646566000000003031323334353637B5
:100D10003839414243444546000000002DE9F04186
:100D2000044600251E461746880404D405E03946CB
:100D30002020B0476D1C641EF9D52846BDE8F0811F
:100D40002DE9F041044600251E469046C80301D512
:100D5000302700E02027880404D505E041463846C6
:100D6000B0476D1C641EF9D52846BDE8F08100002F
:100D70000B48006840F4AA400949086008468068AA
:100D800040F47F4088600748006840F0050005494E
:100D900008600846806840F00F00886070470000D7
:100DA00000200240001002408168F1B1C268C2EB2D
:100DB000C211026901EB82020523B2FBF3F2026168
:100DC000026902EB8202520042F6AC13B2FBF3F26C
:100DD0004261436982685A43044BB3FBF2F2826179
:100DE0008268B3FBF2F2C26100BF704740420F005D
:100DF00000B50848006828B10648FFF7D5FF002075
:100E0000044908600348806810B9024800F02FF8D0
:100E100000BD0000400F002000B50848006828B160
:100E20000648FFF7C1FF01200449086003488068B5
:100E300010B9024800F01BF800BD0000640F00204C
:100E4000054801680068401C034A1060062902D961
:100E500000201146086070472C0600200246002042
:100E600002E000231354401C8842FAD3704700214B
:100E7000016141618161C161704770470AE000BF53
:100E80000649096801F080010029F9D010F8011B1A
:100E9000024A516001780029F1D1704700100140E9
:100EA00010B50648807A00B910BD05A0FFF78CFC8C
:100EB00000200249887200BFF6E70000280F0020DA
:100EC0002D2D2D2D2D2D2D2D2D2D2D2D2D2D2D2D52
:100ED0002D2D2D2D2D2D2D2D2D2D2D2D2D2D2D2D42
:100EE0002D2D2D2D2D0A000010B51A48006840F058
:100EF000E0401849086017482038006840F4004076
:100F000014492039086013481838006840F44040FC
:100F10001049183908601048406A40F070010E48C6
:100F20004162006840F400200B4908600846806870
:100F300040F4402088605B20084988600846C0680B
:100F400042F2080108430549C86005A0FFF73CFCD0
:100F500010BD0000200402400000024000100140CB
:100F6000446562756720496E6974204F6B210A00E1
:100F700000B502461D48006820F004001B490860C7
:100F800072B600F037F81A48006840F002001849BD
:100F900008600846006820F0F8000860084600680D
:100FA00040EAC20008600846006840F480300860EB
:100FB00000BF0F48001F006800F480300028F8D1FF
:100FC0000B48001F006800F0010018B1012008491B
:100FD000091F08604FF000400549086062B60348E9
:100FE000006840F004000149086000BD0C44004066
:100FF000103C024000BF0948006800F4803000281F
:10100000F9D10648001D006800F0004028B10448EE
:101010000249083908600348086070470C3C0240E8
:1010200023016745AB89EFCD30B503460C46FFF78A
:10103000E1FF002029E000BF1949096801F480316F
:101040000029F9D11649091D096841F00101144D23
:101050002D1D2960215C195400BF1149096801F454
:1010600080310029F9D10E49096801F0010111B15F
:1010700001210B4D29600A49091D096821F0010170
:10108000074D2D1D2960411C88B29042D3DB0448D6
:10109000001D006840F000400149091D086030BD96
:1010A0000C3C024003B50B466846FFF7E7FE00988C
:1010B0000CBD0000024800680148001D0068704730
:1010C000145C004010B520480068204908431E49C0
:1010D00008601F4800684BF6807108431C4908608F
:1010E0001B48083000684BF68071084318490831E6
:1010F0000860081D00684BF68071084314490C31E4
:1011000008601448406946F2660108431149486185
:101110000846006946F2666108430E4908610846C0
:10112000C06840F4C0410B48C16001212820FFF78E
:101130007DFB2820FFF758FB01211720FFF776FBE6
:101140001720FFF751FB10BD0C1802400080AA8A3F
:10115000003C014000380140002008E00021054A21
:1011600011540022034919310A54411CC8B21928EC
:10117000F4DB7047880F002010B501F001023AB18E
:10118000421E0F4B9A5C42F00103421E0C4CA354CA
:1011900001F002023AB1421E094B9A5C42F002038E
:1011A000421E074CA35401F004023AB1421E044B04
:1011B0009A5C42F00403421E014CA35410BD00008F
:1011C000880F0020002005E082490A5C19310A548A
:1011D000411CC8B21928F7DB00217E4880F8211095
:1011E000007A00F0010038B17A4890F8210040F010
:1011F0000401784880F821107648007A00F0020057
:1012000038B1744890F8210040F00101714880F82D
:1012100021107048007A00F0040038B16D4890F851
:10122000210040F002016B4880F82110002169483C
:1012300080F82210407A00F0010038B1654890F83B
:10124000220040F00401634880F822106148407A8F
:1012500000F0020038B15F4890F8220040F002012F
:101260005C4880F822105B48407A00F0040038B1F6
:10127000584890F8220040F00101564880F82210AA
:101280000021544880F82310807A00F0010038B122
:10129000504890F8230040F001014E4880F8231098
:1012A0004C48807A00F0020038B14A4890F8230098
:1012B00040F00401474880F823104648807A00F047
:1012C000040038B1434890F8230040F0020141483F
:1012D00080F8231000213F4880F82810C07B00F0E0
:1012E000010038B13B4890F8280040F0040139482B
:1012F00080F828103748C07B00F0020038B135482C
:1013000090F8280040F00201324880F82810314857
:10131000C07B00F0040038B12E4890F8280040F05F
:1013200001012C4880F8281000212A4880F82C1050
:10133000C07C00F0010038B1264890F82C0040F045
:101340000401244880F82C102248C07C00F00200E0
:1013500038B1204890F82C0040F002011D4880F878
:101360002C101C48C07C00F0040038B1194890F8DB
:101370002C0040F00101174880F82C10002115487E
:1013800080F82D10007D00F0010038B1114890F870
:101390002D0040F004010F4880F82D100D48007D0D
:1013A00000F0020038B10B4890F82D0040F0020127
:1013B000084880F82D100748007D00F0040038B17F
:1013C000044890F82D0040F00101024880F82D10EB
:1013D00070470000880F002000B5234800682349AB
:1013E000096888423FD020480068062836D2DFE8E6
:1013F00000F0030A1118212B00F060F84FF4802050
:101400001B4908602AE000F059F84FF40020184901
:10141000086023E000F052F84FF0807015498861B1
:101420001CE000F04BF84FF48020114908604000A8
:10143000086013E000F042F84FF400200C49086007
:1014400040010C49886109E000F038F84FF08070E5
:101450000849886180110649086000BF00BF024842
:1014600000680249086000BD2C06002030060020FC
:10147000181C02400020024000B50E48006840F0F1
:1014800050000C4908600B480830006840F0F0003C
:101490000849083108600848006840F4803006496F
:1014A00008600846806840F44030886000F006F824
:1014B00000BD0000001C024000200240042004493E
:1014C00008600820086040010249886170470000F8
:1014D000181C0240002002401148006840F04040C3
:1014E0000F490860081D006840F00040091D0860B1
:1014F0000C48806840F47C000A4988600846C0684F
:1015000040F42800C8600848006840F00F00064911
:101510000860081D006840F00A00091D0860704757
:1015200008080240002002400814024010B50E488E
:10153000006840F015000C4908600846806840F0DB
:101540003F008860002008E00021084A1154002272
:10155000064919310A54411CC8B21928F4DBFFF7B7
:10156000FBFD00F005F810BD00200240880F0020B0
:1015700070B5FFF727FE04201A4988610120002179
:10158000FFF7B7F9002426E0002520E0C4F1180198
:101590001548405C0121A940084020B14FF480303B
:1015A0001049886102E001200E49886102200D493E
:1015B000886101200021FFF79CF94FF400300949B0
:1015C000886101200021FFF794F9681CC5B2032D42
:1015D000DCDB601CC4B2192CD6DB4FF4802001493F
:1015E000886170BD00200240A10F002000204C49FE
:1015F000086000F0F3F8FFF777FC00F04DF9FFF713
:101600003CFCFFF7B5FBFFF737FFFFF78FFFFFF756
:1016100063FF00F073FA00F0E1FA00F08FFF00F0D2
:1016200057FE00F099F8FFF74DFD00F067FC00F061
:101630001BFB00F0E3FA3BA0FFF7C6F801240525E9
:1016400009260D274FF011084FF0150960033A499C
:10165000086042F210710A2000F038FCA0033649FD
:10166000086042F21071012000F040FC57E000F0E9
:10167000F1F9FFF715FCFFF7BBFBFFF7CDFB00F01F
:10168000BBFE00F047FBFFF7A7FE28200021FFF775
:1016900018F9601C80B20446192800DD0124681C7A
:1016A00080B20546192800DD0125701C80B206466F
:1016B000192800DD0126781C80B20746192800DDB4
:1016C000012708F1010080B28046192801DD4FF0A2
:1016D000010809F1010080B28146192801DD4FF0AF
:1016E0000109FFF739FDE0B20421FFF745FDE8B23B
:1016F0000521FFF741FDF0B20121FFF73DFDF8B2F2
:101700000321FFF739FD08F0FF000221FFF734FD48
:1017100009F0FF000621FFF72FFDFFF729FFA6E7DD
:10172000280F00205374617274204D61696E20434C
:1017300079636C65210A0000181402400146B1F576
:10174000E16F01DD4FF4E16164224A4340F2C223BC
:1017500092FBF3F2D0B2704700B51C48006840F02D
:1017600070501A49086019480838006840F0A050C5
:101770001649083908601648806816490843144914
:101780008860084600681449084311490860084603
:10179000C068114908430E49C8600846006A40F015
:1017A000020008620846406A40F0805108484162E1
:1017B000000306491031086000F080FB4FF08040C4
:1017C00002491031086000F08BFB00BD0814024094
:1017D00000000240030000C00200008010B5642039
:1017E0000021FFF76EF840F20F10264908604FF411
:1017F00080302549086000BF2348006800F40030AD
:101800000028F9D021482049091D0860081F0068F8
:1018100040F08070091F086000BF1B48006800F09E
:1018200000700028F9D018480830006840F41440CF
:101830001549083108600846006840F00200086059
:1018400000BF11480830006800F008000028F8D0F8
:101850000D48303000680E4908430B4930310860AC
:101860000948403000680B49084307494031086087
:10187000081D006845F210410843034944310860DF
:1018800010BD0000003C024000380240042A40071E
:10189000FF016000BF01860010B51CA0FEF794FF99
:1018A00050211F48FFF7DAFA02211E48FFF7D6FA47
:1018B00018211D48FFF7D2FA4FF404711B48FFF7B7
:1018C000CDFA4FF404711A48FFF7C8FA4FF40471C7
:1018D0001848FFF7C3FA20211748FFF7BFFA202165
:1018E0001648FFF7BBFA20211548FFF7B7FA00F0BA
:1018F00031F80B48C06C45F2AA51884201D000F083
:101900006FF810A0FEF760FF10BD000053657474FF
:1019100020496E69742053746172742E2E2E0A0051
:101920003806002000020020280F0020E8060020D2
:10193000F8080020080B002088060020A8060020D8
:10194000C80600205365747420496E6974204F6B7B
:10195000210A00002DE9F04148244FF000081A4800
:1019600025182868401CE8B1012017E0164A2244D7
:10197000502303FB00210A682B689A4201D90122F7
:1019800000E000220B685B1C0BB1012300E0002388
:101990001A400AB180460D46411C88B240F265618A
:1019A0008842E3D30848502101FB0806074F002076
:1019B00003E0315C3954411C88B25028F9D304A0AB
:1019C000FEF702FFBDE8F08100000E083806002097
:1019D00053657474204C6F6164204F6B210A0000C2
:1019E00010B500201449086048608860C86008612C
:1019F00048618861C8614FF47A70086201460E48F8
:101A000041628162C162016341638163C1630B48CA
:101A10000949086400204864886445F2AA50C864F3
:101A200007A0FEF7D1FE0B20FFF7A2FA012008491C
:101A3000888000F00FF810BD3806002040E2010059
:101A400053657474204E756C6C204F6B210A000036
:101A5000280F002070B51C488088002833D0482506
:101A600000241A482E183068401CD8B101200CE020
:101A7000164A2A44502303FB00210A68521C12B95B
:101A800004B20E4605E0411C88B240F2656188420E
:101A9000EED300BF40F26460844203D10B20FFF715
:101AA00067FA00240949502202FB04100849FFF795
:101AB000BBFA0748826C214606A0FEF785FE00208F
:101AC0000149888000BF70BD280F002000000E086B
:101AD0003806002053657474205361766520706F5A
:101AE000733A20272564272C2069643A202725642F
:101AF00027202D204F6B210A000000002C48006891
:101B000040F473202A490860081D006840F4222030
:101B1000091D0860274800682749084325490860CF
:101B2000081D0068254908432249091D086024480A
:101B300000682449084322490860081D00682249BA
:101B400008431F49091D08602048006840F04040D4
:101B50001E490860081D006840F00040091D08602B
:101B60001B48006843F2F031084319490860081D1A
:101B7000006842F2A02108431549091D0860154874
:101B8000006840F4405013490860081D006840F4A4
:101B90000050091D08601048806840F0C0000E49E0
:101BA00088600846C06840F08000C8607047000048
:101BB000080402400808024000F0FF0300A0AA0247
:101BC000080C0240F0F0C00FA0A0800A08140240E8
:101BD00008180240081C0240002002400648006825
:101BE00040F0705004490860081D006840F0205023
:101BF000091D0860704700000804024010B517482E
:101C00004FF0E021486148170321002804DB0A0750
:101C1000130E134A135406E00A07140E114A00F07B
:101C20000F031B1FD45400BF4FF0FF3000280DDB03
:101C300000BF00BF00F01F02012191404209920045
:101C400002F1E022C2F8001100BF00BF00BF002077
:101C50004FF0E02188610720086110BDABA2190098
:101C600000E400E018ED00E010B52348006840F003
:101C700080402149086020482038406A40F0040133
:101C80001D4820384162006840F420301A4920394C
:101C90000860081D006840F4C070091D08601648FF
:101CA0001438006840F4A030134914390860081F44
:101CB000006840F47030091F08601048006840F464
:101CC00000400E4908600846006820F400400860A3
:101CD0002A20091D08600814091D0860D220074940
:101CE0001C3108602B20091D086001200349086091
:101CF00003A0FEF769FD10BD201C0240005C0040FF
:101D00005465726D6F2049324320496E6974204FCB
:101D10006B210A0070B56648807D00B970BD6548CA
:101D2000006820F40060634E30603046006840F484
:101D3000806030603046006840F48070306047F268
:101D4000305104E0081EA1F1010100D1E6E7594835
:101D50001430006800F001000028F3D0FFF7AAF962
:101D60009020544E1036306047F2305104E0081E87
:101D7000A1F1010100D1D1E74E481430006800F014
:101D800002000028F3D0FFF795F90020494E1036E5
:101D9000306047F2305104E0081EA1F1010100D18A
:101DA000BCE744481430006800F080000028F3D0FD
:101DB000FFF780F93F48006840F480703D4E306086
:101DC00047F2305104E0081EA1F1010100D1A5E75E
:101DD00038481430006800F001000028F3D0FFF705
:101DE00069F99120334E1036306047F2305104E0EB
:101DF000081EA1F1010100D190E72E4814300068BF
:101E000000F002000028F3D0FFF754F947F23051F8
:101E100004E0081EA1F1010100D17FE7254814303C
:101E2000006800F040000028F3D02248103000681D
:101E3000C2B22048006820F480601E4E30603046F8
:101E4000006840F40070306047F2305104E0081E32
:101E5000A1F1010100D161E716481430006800F0DB
:101E600040000028F3D0134810300068C5B245EA9E
:101E70000220431103EB8300C61700EB9676B610E1
:101E800034B202F0800058B140F2FF76F61A761CA8
:101E9000764206EB8600C61700EB9676B61034B293
:101EA000054804800020024EB07500BF36E70000F0
:101EB000280F0020005C00400002002000B502480E
:101EC00000F0ACF800BD0000000C004003B501AA12
:101ED0006946024800F0ACF80CBD0000000C004060
:101EE00000B54FF0804000F099F800BD03B501AA9D
:101EF00069464FF0804000F09BF80CBD10B5424899
:101F0000006840F00300404908603F480C3000681A
:101F100040F003003C490C3108603C48006840F048
:101F200066003A49086001210620FEF793FC06206E
:101F3000FEF76BFC01210720FEF78CFC0720FEF763
:101F400064FC3348006A40F0194031490862084691
:101F5000006840F4204008600846806840F4704003
:101F6000886000202B4908602A4910310860092048
:101F70002849091D086027480C38006840F0010016
:101F800024490C3908602348001F006840F0010014
:101F90002049091F08601F481838006840F00200F7
:101FA0001C49183908601B482438006840F00100BB
:101FB00018492439086006212C20FEF74BFC2C2000
:101FC000FEF723FC00201449486248630920886218
:101FD0000846806940F0010088610846006A40F0C8
:101FE000010008620846C06840F00200C860084668
:101FF000006840F00100086006212D20FEF72AFC51
:102000002D20FEF702FC10BD003C014008380140C5
:1020100000000240241C004000200040002101621A
:10202000816101608162C162416341627047000069
:1020300070B5204E0D68B54201D935460D601D4E74
:102040001568B54201D9354615600D682DB1156882
:102050001DB10D681668B54200D170BD0B681468DB
:102060000D681668B54201D913680C6800258562B1
:10207000542565430A26B5FBF6F5C56254255D4334
:10208000B5FBF6F5456380250560456945F001051A
:102090004561856945F060058561856945F00805FC
:1020A000856101250562056845F00105056000BFF1
:1020B000D3E7000080969800034840680249886092
:1020C0000020486070470000400F0020034840682F
:1020D000024988600020486070470000640F0020BB
:1020E000F0B5059E8C18012E01D1012700E00027D4
:1020F00007EAD47707B1002404FB03F74FF47A7C96
:1021000097FBFCF50560F0BD10B5036803FB0124E7
:102110004B1C94FBF3F3036010BD000070B5054643
:102120002846FFF70BFB044620200549886120461E
:102130000A2100F09FF84FF400100149886170BD3A
:102140000010024070B504462046FFF7F7FA054636
:1021500020200649886105F580700A2100F08AF880
:102160004FF400100149886170BD0000001002406A
:1021700070B504462046FFF7E1FA054620200649DF
:10218000886105F500700A2100F074F84FF4001022
:102190000149886170BD00000010024070B504461E
:1021A0002046FFF7CBFA054620200649886105F551
:1021B00040700A2100F05EF84FF400100149886178
:1021C00070BD00000010024070B505462846FFF7BC
:1021D000B5FA044640200549886120460A2100F0EE
:1021E00049F84FF480000149886170BD0010024039
:1021F00070B504462046FFF7A1FA0546402006497F
:10220000886105F580700A2100F034F84FF48000F1
:102210000149886170BD00000010024070B504469D
:102220002046FFF78BFA054640200649886105F5F0
:1022300000700A2100F01EF84FF480000149886107
:1022400070BD00000010024070B504462046FFF744
:1022500075FA054640200649886105F540700A2157
:1022600000F008F84FF480000149886170BD00005B
:102270000010024070B506460C4601200021FEF712
:1022800038FB00251EE0601E411B012088403040C5
:1022900018B108200D49886103E04FF400200B4974
:1022A000886110200949886101200021FEF721FB87
:1022B0004FF480100549886101200021FEF719FBC9
:1022C000681CC5B2A542DEDB70BD000000100240F4
:1022D00010B535480068354908433349086034482B
:1022E0000068344908433449C1F810020846D0F860
:1022F0000C0240F47C30C1F80C022D4824300068F8
:102300002E4908432C49C1F834020846D0F830025F
:1023100040F49470C1F830020846D0F82C0240F422
:10232000E000C1F82C020846D0F8040240F48070A6
:102330001F490C3908600120091D08600820204948
:1023400008601B483C30091D08601E48091D0860D4
:102350001D481B49091F086038200721002804DB9D
:102360000A07130E194A135406E00A07140E184AF6
:1023700000F00F031B1FD45400BF382000280DDBD2
:1023800000BF00BF00F01F020121914042099200EE
:1023900002F1E022C2F8001100BF00BF00BF002020
:1023A0000C494882C87210BD00140240F0FF3C0086
:1023B0001022014000F0FF3F00200140EE91620E2C
:1023C00014640240880600201155000400E400E077
:1023D00018ED00E0280F00200448408A28B904487E
:1023E000044908600120014948827047280F0020F5
:1023F000030700400822014008B54B48C07A00B9E5
:1024000008BD4A4802683F214948FFF77DFE47481A
:1024100042683F214648001DFFF776FE4348826828
:102420003F2143480830FFF76FFE4048C2683F2114
:102430003F480C30FFF768FE3C4802693F213C48AA
:102440001030FFF761FE394842693F2138481430A7
:10245000FFF75AFE354882693F2135481830FFF7AB
:1024600053FE3248C2693F2131481C30FFF74CFE11
:10247000012000902F48036A02682D4801682E4809
:10248000FFF72EFE012000902A48436A4268284840
:1024900041682948001DFFF723FE012000902548D0
:1024A000836A82682248816823480830FFF718FE53
:1024B000012000901F48C36AC2681D48C1681E48B9
:1024C0000C30FFF70DFE012000901A48036B0269E3
:1024D0001748016918481030FFF702FE01200090EC
:1024E0001448436B42691248416913481430FFF79E
:1024F000F7FD012000900F48836B82690C488169C9
:102500000D481830FFF7ECFD012000900948C36B1F
:10251000C2690748C16908481C30FFF7E1FD002087
:102520000149C87200BF6BE7280F00208806002011
:10253000A806002038060020C806002010B52C4848
:10254000006840F004002A4908600846806840F0AE
:102550000C0088602748006840F055002549086055
:1025600024480830006840F0FF0022490831086024
:102570002148006840F010001F4908601E480830DC
:10258000006840F030001C49083108601B480068B2
:1025900040F4A0601949086018480830006840F409
:1025A00070601649083108601548006840F4AA5068
:1025B000134908600846806840F47F508860002016
:1025C000FFF7ACFD0020FFF7BDFD0020FFF7D0FDB9
:1025D0000020FFF7E3FD0020FFF7F6FD0020FFF7E6
:1025E00007FE0020FFF71AFE0020FFF72DFE10BDAA
:1025F000000002400008024000140240001C02409B
:1026000000100240242600080000002038060000C8
:10261000860200086027000838060020880D0000A8
:10262000B4080008200900C1814001C08041046154
:102630000C2108E118A11C011A300116380136607E
:10264000012E70012F6000FF00C0C101C30302C250
:10265000C60607C705C5C404CC0C0DCD0FCFCE0EE2
:102660000ACACB0BC90908C8D81819D91BDBDA1A52
:102670001EDEDF1FDD1D1CDC14D4D515D71716D6C2
:10268000D21213D311D1D010F03031F133F3F23232
:1026900036F6F737F53534F43CFCFD3DFF3F3EFEA2
:1026A000FA3A3BFB39F9F83828E8E929EB2B2AEA12
:1026B000EE2E2FEF2DEDEC2CE42425E527E7E62682
:1026C00022E2E323E12120E0A06061A163A3A262F2
:1026D00066A6A767A56564A46CACAD6DAF6F6EAE62
:1026E000AA6A6BAB69A9A86878B8B979BB7B7ABAD2
:1026F000BE7E7FBF7DBDBC7CB47475B577B7B67642
:1027000072B2B373B17170B05090915193535292B1
:1027100096565797559594549C5C5D9D5F9F9E5E21
:102720005A9A9B5B99595898884849894B8B8A4A91
:102730004E8E8F4F8D4D4C8C448485458747468601
:1027400082424383418180A340000109FF0C09FFBD
:102750000C011C0109FF2009FF205B00012500007E
:040000050800019D51
:00000001FF
