:020000040800F2
:1000000008F40020E15E0008E95E0008EB5E0008ED
:10001000ED5E0008EF5E0008F15E000800000000E1
:10002000000000000000000000000000F35E000877
:10003000F55E000800000000F75E0008F95E0008A9
:10004000FB5E0008FB5E0008FB5E0008FB5E00082C
:10005000FB5E0008FB5E0008FB5E0008FB5E00081C
:10006000FB5E0008FB5E0008FB5E00083B430008E7
:100070001B430008FB5E0008FB5E0008FB5E0008F7
:10008000FB5E000869580008FB5E0008FB5E000884
:10009000FB5E0008FB5E0008FB5E0008FB5E0008DC
:1000A000FB5E000809430008FB5E0008FB5E0008D9
:1000B000FB5E0008FB5E0008EB420008FB5E0008E8
:1000C000FB5E0008FB5E0008FB5E0008FB5E0008AC
:1000D000FB5E00086527000895580008FB5E0008D5
:1000E000FB5E0008FB5E0008FB5E0008FB5E00088C
:1000F00011430008FB5E0008FB5E0008FB5E000881
:10010000FB5E0008FB5E0008FB5E0008FB5E00086B
:10011000FB5E0008FB5E000883580008E3580008F7
:10012000FB5E0008FB5E0008FB5E0008FB5E00084B
:10013000FB5E0008FB5E0008FB5E0008FB5E00083B
:10014000FB5E0008FB5E0008FB5E0008FB5E00082B
:10015000FB5E0008FB5E0008FB5E0008FB5E00081B
:10016000FB5E0008FB5E0008FB5E0008FB5E00080B
:10017000FB5E0008FB5E0008FB5E0008FB5E0008FB
:10018000FB5E0008FB5E0008DFF80CD007F0E6F825
:10019000004800479D01000808F40020B6B002F0B6
:1001A0003FFB04F078F902F077FA02F052FC05F018
:1001B0006BFC05F0D3FA01F067FE00F0A6F9002011
:1001C00001F0D0FC00264FF6FF7750213B4646A2B7
:1001D0000846009601F0EFFD3B4648A264215520F9
:1001E000009601F0E8FD494A49A103A807F0D8F8B4
:1001F0003B4603AA78215A20009601F0DCFD3B46DD
:1002000045A28C216420009601F0D5FD02F016FD78
:1002100004F027FA0025434B3C46284603EB8002B6
:1002200002F54042401CB2F88812B2F88A2280B22D
:1002300041EA020C11400C404CEA05050328EDD3BD
:10024000002001F08FFC3848DFF8E08081460DB1D6
:10025000BC4210D102F068F93348C1884389028951
:100260008DE80E0083884288018831A007F088F865
:100270000120C8F80000484602F0A6F901F09DFFF1
:100280000146364A364802F0E7F8354C35482188B1
:10029000018061884180C8F80860C8F80C60C8F81F
:1002A0001060C8F81460002001F05CFC03F0F7FC5B
:1002B0001C4803F02DFE2CA007F062F8304D01F031
:1002C0007CFF0146254A264802F0C6F82A8C618840
:1002D000208801F0D8FE05F0E7F902F0CDFA05F02C
:1002E00042FB04F0F5F8EAE74E50432052616461A6
:1002F00072536572766963650000000050756C7317
:10030000652047656E657261746F7200248D3401DB
:10031000465720762E2564004C6F6164696E672E07
:100320002E2E0000940000201CC3002038C30020A3
:1003300078303A2025643B2079303A25643B0A78AE
:10034000313A25643B2079313A25643B0A78323AC8
:1003500025643B2079323A25643B0A005000002096
:1003600014000020180000204D61696E2063796B35
:100370006C65207374617274204F6B210A00000059
:10038000D0EF00201CB50121582006F011FA012100
:10039000084606F021FAFF4C0C220021204606F008
:1003A000C3F80C220121204606F0BEF80C220421DD
:1003B000204606F0B9F80C220521204606F0B4F8D4
:1003C0000C220821204606F0AFF80C220921204615
:1003D00006F0AAF80C220A21204606F0A5F80C2205
:1003E0000E21204606F0A0F80C220F21204606F030
:1003F0009BF802218DF804108DF8051000214CF2B5
:1004000033708DF8061000908DF80710694620466D
:1004100006F016F8E04C0C220221204606F084F883
:100420000C220721204606F07FF80C2208212046E6
:1004300006F07AF80C220921204606F075F80C2205
:100440000A21204606F070F80C220B21204606F007
:100450006BF80C221146204606F066F80C220D219E
:10046000204606F061F80C220E21204606F05CF8CA
:100470000C220F21204606F057F84FF684710091A8
:100480006946204605F0DCFFC44C0C2205212046BD
:1004900006F04AF80C221146204606F045F80C22D8
:1004A0000D21204606F040F80C220E21204606F0D1
:1004B0003BF847F2200100916946204605F0C0FF55
:1004C0001CBD002240F2754306E00021491C89B2A0
:1004D0009942FBD3521C92B28242F6D37047B04984
:1004E000088070474FF0DA41088070474FF0DA42D9
:1004F0001080AB4801807047A948008870474FF0D2
:10050000DA410880A648008870472DE9F05FA54CC5
:10051000FFF738FF641EFDD201F079FC4FF49670AE
:10052000FFF7CFFFA04A40F2231300205380FFF7CC
:10053000E6FFA0F5134150804FF480754FF4E06A58
:1005400041F2180740F2272840F207744FF4007C6C
:1005500040F23F1625397DD0A0F513412839FAD055
:10056000A0F5134140F2022B203974D0B0F5134F9F
:10057000FBD0A0F513414FF4017731396CD0A0F5D1
:10058000194140F2055C193967D0A0F5A851053929
:1005900001D060457ED10920107000210720FFF7AF
:1005A000A5FF3220FFF78DFF4FF48E711220FFF769
:1005B0009DFF0121A420FFF799FF0F210820FFF7DD
:1005C00095FF08210A20FFF791FF08210D20FFF772
:1005D0008DFF234621463020FFF788FF0721312079
:1005E000FFF784FF40F203613220FFF77FFF54469C
:1005F00051463320FFF77AFF59463420FFF776FF44
:1006000002213520FFF772FF41F60F713620FFF708
:100610006DFF19463720FFF769FF00213820FFF7EB
:1006200065FF00213920FFF761FF19463A20FFF7E7
:100630005DFF00213B20FFF759FF07213C20FFF71A
:1006400055FF00213D20FFF751FF3220FFF739FF12
:10065000012103E0BBE077E292E118E30720FFF716
:1006600045FF01211720FFF741FF3220FFF729FF47
:100670004FF4BD511020FFF739FF40F21721112030
:10068000FFF734FF4FF48F711220FFF72FFF4FF465
:10069000706100E082E31320FFF728FF00212A2089
:1006A000FFF724FF0A212920FFF720FF4FF49F7155
:1006B0001220FFF71BFF00215020FFF717FFEF214B
:1006C0005120FFF713FF00215220FFF70FFF3146A3
:1006D0005320FFF70BFF4FF41C516020FFF706FF7C
:1006E00001216120FFF702FF00216A20FFF7FEFED3
:1006F00000218020FFF7FAFE00218120FFF7F6FE9F
:1007000000218220FFF7F2FE00218320FFF7EEFE9A
:1007100000218420FFF7EAFE00218520FFF7E6FE96
:1007200013219020FFF7E2FE4FF440719220FFF773
:10073000DDFE05219320FFF7D9FE00219520FFF76C
:10074000D5FE00219720FFF7D1FE00219820FFF76A
:10075000CDFE29460120FFF7C9FE21460220FFF702
:10076000C5FE41F230010320FFF7C0FE0021042046
:10077000FFF7BCFE00210C20FFF7B8FE00210F2080
:10078000FFF7B4FE00212020FFF7B0FE002121205A
:100790000CE00000000C0240001002400018024073
:1007A0000000016DFFFF1F0000000020FFF79EFE0C
:1007B00021210720FFF79AFEC820FFF782FE612162
:1007C0000720FFF793FEC820FFF77BFEFDE3012023
:1007D000107047F6F001E520FFF788FE294601205A
:1007E000FFF784FE51460220FFF780FE39460320C2
:1007F000FFF77CFE00210420FFF778FE40F207217E
:100800000820FFF773FE00210920FFF76FFE00218B
:100810000A20FFF76BFE00210C20FFF767FE002186
:100820000D20FFF763FE00210F20FFF75FFE002180
:100830001020FFF75BFE07211120FFF757FE002174
:100840001220FFF753FE00211320FFF74FFE012176
:100850000720FFF74BFEC820FFF733FE41F290015F
:100860001020FFF743FE41461120FFF73FFE3220E4
:10087000FFF727FE1F211220FFF738FE3220FFF777
:1008800020FE4FF4A8511320FFF730FE2721292026
:10089000FFF72CFE0D212B20FFF728FE3220FFF75B
:1008A00010FE00212020FFF721FE00212120FFF76C
:1008B0001DFE00213020FFF719FE21463120FFF7F1
:1008C00015FE40F207313220FFF710FE6146352059
:1008D000FFF70CFE08213620FFF708FE0421372021
:1008E000FFF704FE00213820FFF700FE21463920E3
:1008F000FFF7FCFD02213C20FFF7F8FD41F6045113
:100900003D20FFF7F3FD00215020FFF7EFFDEF2121
:100910005120FFF7EBFD00215220FFF7E7FD3146A4
:100920005320FFF7E3FD4FF427416020FFF7DEFD82
:1009300001216120FFF7DAFD00216A20FFF7D6FDD3
:1009400000218020FFF7D2FD00218120FFF7CEFD9E
:1009500000218220FFF7CAFD00218320FFF7C6FD9A
:1009600000218420FFF7C2FD00218520FFF7BEFD96
:1009700010219020FFF7BAFD4FF4C0619220FDE3F3
:100980000320107041F21401E720FFF7AFFD294664
:100990000120FFF7ABFD61460220FFF7A7FD41F202
:1009A00030010320FFF7A2FD59460820FFF79EFD06
:1009B00000210920FFF79AFD00210A20FFF796FD8C
:1009C00000210C20FFF792FD00210D20FFF78EFD86
:1009D00000210F20FFF78AFD00211020FFF786FD80
:1009E00007211120FFF782FD00211220FFF77EFD75
:1009F00000211320FFF77AFDC820FFF762FD41F2C6
:100A000090611020FFF772FD41461120FFF76EFD47
:100A10003220FFF756FD0C211220FFF767FD322030
:100A2000FFF74FFD4FF400611320FFF75FFD112129
:100A30002920FFF75BFD0B212B20FFF757FD32200C
:100A4000FFF73FFD00212020FFF750FD002121206E
:100A5000FFF74CFD00213020FFF748FD4FF4837372
:100A600019463120FFF742FD00213220FFF73EFDFD
:100A700039463520FFF73AFD41F20A613620FFF78B
:100A800035FD21463720FFF731FD19463820FFF7A5
:100A90002DFD21463920FFF729FD40F202413C207F
:100AA000FFF724FD40F60F413D20FFF71FFD002119
:100AB0005020FFF71BFDEF215120FFF717FD00210C
:100AC0005220FFF713FD31465320FFF70FFD4FF47F
:100AD0001C516020FFF70AFD01216120FFF706FD90
:100AE00000216A20FFF702FD00218020FFF7FEFCB5
:100AF00000218120FFF7FAFC00218220FFF7F6FC9D
:100B000000218320FFF7F2FC00218420FFF7EEFC98
:100B100000218520FFF7EAFC10219020FFF7E6FC7A
:100B20004FF4C0619220FFF7E1FC21210720FFF77D
:100B3000DDFC3220FFF7C5FC61210720FFF7D6FC62
:100B40003220FFF7BEFCFDE3002010700146FFF7E6
:100B5000CDFC29460120FFF7C9FC51460220FFF7D2
:100B6000C5FC39460320FFF7C1FC00210420FFF734
:100B7000BDFC59460820FFF7B9FC00210920FFF70A
:100B8000B5FC00210A20FFF7B1FC01210C20FFF782
:100B9000ADFC00210D20FFF7A9FC00210F20FFF77D
:100BA000A5FC6420FFF78DFC40F201110720FFF740
:100BB0009DFC6420FFF785FC4FF486511020FFF761
:100BC00095FC07211120FFF791FC4FF4887319461B
:100BD0001220FFF78BFC4FF430611320FFF786FCE7
:100BE00000212920FFF782FC44F210012B20FFF79F
:100BF0007DFC00215020FFF779FCEF215120FFF709
:100C000075FC00215220FFF771FC31465320FFF79D
:100C10006DFC4FF41C516020FFF768FC012161203E
:100C2000FFF764FC00216A20FFF760FC00218020B0
:100C3000FFF75CFC00218120FFF758FC0021822097
:100C4000FFF754FC00218320FFF750FC0021842093
:100C5000FFF74CFC00218520FFF748FC1021902075
:100C6000FFF744FC00219220FFF740FC0121932074
:100C7000FFF73CFC19469520FFF738FC0021972030
:100C8000FFF734FC0021982042E30720EBE30D201E
:100C9000107006212820FFF729FC01210020FFF712
:100CA00025FC00211020FFF721FC47F2EF21012055
:100CB000FFF71CFC4FF4C0610220FFF717FC46F65B
:100CC00038210320FFF712FC46F674011120FFF7CC
:100CD0000DFC00210F20FFF709FC45F208310B2025
:100CE000FFF704FC03210C20FFF700FC0A210D2074
:100CF000FFF7FCFB4FF438510E20FFF7F7FBBE2146
:100D00001E20FFF7F3FB4FF400412520FFF7EEFB19
:100D10004FF4F0412620FFF7E9FB78212720FFF769
:100D2000E5FB00214E20FFF7E1FB00214F20FFF7FC
:100D3000DDFB40F6D9011220FFF7D8FB002130205F
:100D4000FFF7D4FB4FF482713120FFF7CFFB294628
:100D50003220FFF7CBFB40F2053319463320FFF773
:100D6000C5FB61463420FFF7C1FB19463520FFF76C
:100D7000BDFB21463620FFF7B9FB4FF44071372009
:100D8000FFF7B4FB4FF490513A20FFF7AFFB4FF45D
:100D900000613B20FFF7AAFB332176E7A0F509416C
:100DA00040F2025840F2023989391DD0A0F50941BC
:100DB00099397CD0A0F5A841083979D0A0F58A41AD
:100DC000313976D0A0F58A41353973D0472872D0B1
:100DD000A0F5EE4183396FD053806720FFF78FFB7A
:100DE0005080472869D0FCE30520107001210020C5
:100DF000FFF77CFB3220FFF764FB4AF6A4010320D7
:100E0000FFF774FB3220FFF75CFB00210C20FFF79B
:100E10006DFB3220FFF755FB40F60C010D20FFF76C
:100E200065FB3220FFF74DFB4FF42C510E20FFF7EE
:100E30005DFB3220FFF745FBB0211E20FFF756FB7C
:100E40003220FFF73EFB42F63F310120FFF74EFB19
:100E50003220FFF736FB4FF4C0610220FFF746FB5C
:100E60003220FFF72EFB00211020FFF73FFB32203E
:100E7000FFF727FB46F270011120FFF737FB322006
:100E8000FFF71FFB00210520FFF730FB3220FFF7A3
:100E900018FB00210620FFF729FB3220FFF711FB8A
:100EA0004EF61C711620FFF721FB322006E0D1E040
:100EB00090E132E2D8E2FCE37DE3FBE3FFF701FBE4
:100EC00003211720FFF712FB3220FFF7FAFA40F256
:100ED00033110720FFF70AFB3220FFF7F2FA002157
:100EE0000B20FFF703FB3220FFF7EBFA00210F2066
:100EF000FFF7FCFA3220FFF7E4FA00214120FFF768
:100F0000F5FA3220FFF7DDFA00214220FFF7EEFA72
:100F10003220FFF7D6FA00214820FFF7E7FA322007
:100F2000FFF7CFFA31464920FFF7E0FA3220FFF70A
:100F3000C8FA00214A20FFF7D9FA3220FFF7C1FA98
:100F400000214B20FFF7D2FA3220FFF7BAFA4FF414
:100F50006F414420FFF7CAFA3220FFF7B2FA0021AE
:100F60004520FFF7C3FA3220FFF7ABFA314646209F
:100F7000FFF7BCFA3220FFF7A4FA21463020FFF732
:100F8000B5FA3220FFF79DFA39463120FFF7AEFA65
:100F90003220FFF796FA39463220FFF7A7FA3220BF
:100FA000FFF78FFA444641463320FFF79FFA32207D
:100FB000FFF787FA40F207513420FFF797FA322003
:100FC000FFF77FFA3946352000E0A3E1FFF78EFAFC
:100FD0003220FFF776FA39463620FFF787FA3220BB
:100FE000FFF76FFA21463720FFF780FA3220FFF72C
:100FF00068FA4C4649463A20FFF778FA3220FFF764
:1010000060FA21463B20FFF771FA3220FFF759FAC8
:1010100000212320FFF76AFA3220FFF752FA00215D
:101020002420FFF763FA3220FFF74BFA4FF4004118
:101030002520FFF75BFA3220FFF743FA00214F200B
:10104000FFF754FA00214E20FFF750FA46F25801FC
:1010500011201BE60420107006212820FFF746FA15
:1010600001210020FFF742FA4AF6A4610320FFF7AE
:101070003DFA04210C20FFF739FA0C210D20FFF76F
:1010800035FA4FF420510E20FFF730FAB5211E201B
:10109000FFF72CFA43F63F310120FFF727FA4FF410
:1010A000C0610220FFF722FA00211020FFF71EFA8C
:1010B00046F630011120FFF719FA00210520FFF74D
:1010C00015FA00210620FFF711FA4EF61C711620C2
:1010D000FFF70CFA33210720FFF708FA00210B2055
:1010E000FFF704FA00210F20FFF700FA002141204A
:1010F000FFF7FCF900214220FFF7F8F90021482012
:10110000FFF7F4F931464920FFF7F0F900214A20B2
:10111000FFF7ECF900214B20FFF7E8F94FF46F419E
:101120004420FFF7E3F900214520FFF7DFF93146BE
:101130004620FFF7DBF900214E20FFF7D7F9002109
:101140004F20FFF7D3F921463020FFF7CFF959465A
:101150003120FFF7CBF939463220FFF7C7F9434674
:1011600041463320FFF7C2F940F207513420FFF720
:10117000BDF939463520FFF7B9F900E01AE23946E2
:101180003620FFF7B3F919463720FFF7AFF94B4682
:1011900049463A20FFF7AAF919463B20FFF7A6F97E
:1011A00000212320FFF7A2F900212420FFF79EF958
:1011B0004FF400412520FFF799F94FF4E041262034
:1011C000FFF794F94BF2EB012020FFF78FF97C2118
:1011D00027205BE50820107029460120FFF786F9DB
:1011E00051460220FFF782F941F230010320FFF758
:1011F0007DF900210420FFF779F940F2072108204A
:10120000FFF774F900210920FFF770F900210A2087
:10121000FFF76CF900210C20FFF768F900210D2081
:10122000FFF764F900210F20FFF760F93220FFF784
:1012300048F940F201110720FFF758F93220FFF773
:1012400040F941F2B0611020FFF750F9012111205F
:10125000FFF74CF901211720FFF748F94FF49C7173
:101260001220FFF743F94FF400611320FFF73EF916
:1012700009212920FFF73AF909212A20FFF736F939
:101280000021A420FFF732F900215020FFF72EF9AA
:10129000EF215120FFF72AF900215220FFF726F90C
:1012A00031465320FFF722F94FF41C516020FFF71D
:1012B0001DF903216120FFF719F900216A20FFF7CA
:1012C00015F900218020FFF711F900218120FFF797
:1012D0000DF900218220FFF709F900218320FFF793
:1012E00005F900218420FFF701F900218520FFF78F
:1012F000FDF813219020FFF7F9F800219220FFF765
:10130000F5F803219320FFF7F1F84FF48871952049
:10131000FFF7ECF840F27311B7E4072010700121D9
:101320000020FFF7E3F84FF4C5611020FFF7DEF867
:1013300006211220FFF7DAF840F632211320FFF7DA
:10134000D5F800E0E9E140211120FFF7CFF8502166
:101350001520FFF7CBF816211220FFF7C7F832202F
:10136000FFF7AFF845F260611020FFF7BFF83220B9
:10137000FFF7A7F842F64E211320FFF7B7F82946EA
:101380000120FFF7B3F84FF440710220FFF7AEF8E9
:1013900041F230010320FFF7A9F859460820FFF772
:1013A000A5F800210A20FFF7A1F800213020FFF75F
:1013B0009DF840F202413120FFF798F84FF4837115
:1013C0003220FFF793F851463320FFF78FF84FF4A0
:1013D00082713420FFF78AF840F201313520FFF79F
:1013E00085F821463620FFF781F840F20531372095
:1013F000FFF77CF84FF402713820FFF777F840F6DA
:101400000B713920FFF772F83220FFF75AF80221EA
:101410004120FFF76BF84FF41C516020FFF766F88E
:1014200001216120FFF762F840F219119020FFF7C7
:101430005DF84FF485719220FFF758F8042193204E
:10144000FFF754F82946A020FFF750F83220FFF7A5
:1014500038F840F233110720FFF748F83220FFF741
:1014600030F80021A02055E30C2010703021152009
:10147000FFF73CF810219A20FFF738F820211120BF
:10148000FFF734F843F228411020FFF72FF802212C
:101490001220FFF72BF841F238011320FFF726F84E
:1014A0002820FFF70EF812210846FFF71FF8282022
:1014B000FFF707F843F220411020FFF717F843F237
:1014C00045011320FFF712F84620FEF7FAFF00212E
:1014D0003020FFF70BF840F202413120FFF706F809
:1014E00040F207313220FFF701F84FF44171332009
:1014F000FEF7FCFF04213420FEF7F8FF40F2014123
:101500003520FEF7F3FF21463620FEF7EFFF40F2CD
:1015100005313720FEF7EAFF4FF4C2631946382041
:10152000FEF7E4FF19463920FEF7E0FF29460120C7
:10153000FEF7DCFF4FF440710220FEF7D7FF41F2C7
:1015400030010320FEF7D2FF40F608010820FEF725
:10155000CDFF08210A20FEF7C9FF4FF41C5160207F
:10156000FEF7C4FF01216120FEF7C0FF4FF49F7119
:101570009020FEF7BBFF29469220FEF7B7FF2946D1
:101580009320FEF7B3FF4FF44051A020FEF7AEFFCB
:101590001021A320FEF7AAFF01210720FEF7A6FFD6
:1015A00021210720FEF7A2FF23210720FEF79EFF3F
:1015B00033210720AFE0062010700121FF20FEF745
:1015C00095FF0821F320FEF791FF29460120FEF741
:1015D0008DFF51460220FEF789FF41F230010320C2
:1015E00000E099E2FEF782FF49460820FEF77EFF01
:1015F00040F207210820FEF779FF00210920FEF7BD
:1016000075FF00210A20FEF771FF00211020FEF770
:101610006DFF05211120FEF769FF00211220FEF762
:1016200065FF00211320FEF761FF3220FEF749FF1E
:1016300041F2B0211020FEF759FF3220FEF741FFA2
:1016400007211120FEF752FF3220FEF73AFF8B21CF
:101650001220FEF74BFF3220FEF733FF4FF4B85154
:101660001320FEF743FF3220FEF72BFF2221292013
:10167000FEF73CFF00213020FEF738FF21463120E5
:10168000FEF734FF61463220FEF730FF40F20711CB
:101690003520FEF72BFF08213620FEF727FF00211B
:1016A0003720FEF723FF5B4659463820FEF71EFF22
:1016B00001E035E014E14FF483713920FEF716FFA5
:1016C00019463C20FEF712FF4FF481613D20FEF7E2
:1016D0000DFF3220FEF7F5FE00215020FEF706FF39
:1016E000EF215120FEF702FF00215220FEF7FEFEFF
:1016F00031465320FEF7FAFE4FF427416020FEF7F3
:10170000F5FE01216120FEF7F1FE33219020FEF766
:10171000EDFE0B212B20FEF7E9FE40F23311FBE535
:101720000A2010700021EA20FEF7E0FE2021EB20C5
:10173000FEF7DCFE0C21EC20FEF7D8FEC421ED20E4
:10174000FEF7D4FE4021E820FEF7D0FE3821E92044
:10175000FEF7CCFE0121F120FEF7C8FE1021F22099
:10176000FEF7C4FEA3212720FEF7C0FE0121402082
:10177000FEF7BCFE00214120FEF7B8FE002142200A
:10178000FEF7B4FE10214320FEF7B0FE0E214420E8
:10179000FEF7ACFE24214520FEF7A8FE04214620DA
:1017A000FEF7A4FE50214720FEF7A0FE02214820AC
:1017B000FEF79CFE13214920FEF798FE19214A20CE
:1017C000FEF794FE19214B20FEF790FE16214C20C7
:1017D000FEF78CFE1B215020FEF788FE31215120A0
:1017E000FEF784FE2F215220FEF780FE3F2153207A
:1017F000FEF77CFE3F215420FEF778FE3E21552067
:10180000FEF774FE2F215620FEF770FE7B21572035
:10181000FEF76CFE09215820FEF768FE06215920CC
:10182000FEF764FE06215A20FEF760FE0C215B20C5
:10183000FEF75CFE1D215C20FEF758FECC215D20EA
:10184000FEF754FE18211B20FEF750FE01211A203E
:10185000FEF74CFE15212420FEF748FE50212520DE
:10186000FEF744FE8B212320FEF740FE3621182090
:10187000FEF73CFE01211920FEF738FE0021012071
:10188000FEF734FE88211F20FEF730FE3220FEF7DF
:1018900018FE80211F20FEF729FE3220FEF711FEE0
:1018A00090211F20FEF722FE3220FEF70AFED021F3
:1018B0001F20FEF71BFE3220FEF703FE0521172036
:1018C000FEF714FE00213620FEF710FE38212820F6
:1018D000FEF70CFE3220FEF7F4FD3C21282019E132
:1018E0000B20107008214220FEF700FEB421462094
:1018F000FEF7FCFD43214720FEF7F8FD13214820A9
:10190000FEF7F4FD47214920FEF7F0FD14214A209F
:10191000FEF7ECFD36214B20FEF7E8FD03214C20BD
:10192000FEF7E4FD46214D20FEF7E0FD05214E20A7
:10193000FEF7DCFD10214F20FEF7D8FD08215020D6
:10194000FEF7D4FD0A215120FEF7D0FD0021022030
:10195000FEF7CCFD00210320FEF7C8FD0021042086
:10196000FEF7C4FDEF210520FEF7C0FD0021062093
:10197000FEF7BCFD00210720FEF7B8FD012108207D
:10198000FEF7B4FD3F210920FEF7B0FD0A20FEF767
:1019900098FD06210120FEF7A9FDC8211620FEF7BB
:1019A000A5FD95212320FEF7A1FD95212420FEF71A
:1019B0009DFDFF212520FEF799FD02212720FEF73E
:1019C00095FD02212820FEF791FD02212920FEF736
:1019D0008DFD02212A20FEF789FD02212C20FEF731
:1019E00085FD02212D20FEF781FD01213A20FEF721
:1019F0007DFD01213B20FEF779FDF0213C20FEF723
:101A000075FD00213D20FEF771FD1420FEF759FD04
:101A100038213520FEF76AFD78213620FEF766FD75
:101A200038213E20FEF762FD0F214020FEF75EFDCB
:101A3000F0214120FEF75AFD00213820FEF756FD27
:101A400049211920FEF752FD0A219320FEF74EFD91
:101A50000A20FEF736FD20210846FEF747FD032148
:101A60001D20FEF743FD00211E20FEF73FFD09214A
:101A70001F20FEF73BFD53214420FEF737FD1021C8
:101A80004520FEF733FD0A20FEF71BFD04211C2034
:101A9000FEF72CFD1420FEF714FD80214320FEF7F5
:101AA00025FD0520FEF70DFD0A211B20FEF71EFD7A
:101AB0002820FEF706FD12211B20FEF717FD282027
:101AC000FEF7FFFC7F219020FEF710FD0421262069
:101AD000FEF70CFD2820FEF7F4FC24212620FEF75B
:101AE00005FD2C212620FEF701FD2820FEF7E9FC4C
:101AF00008217020FEF7FAFC3C212620FEF7F6FCB8
:101B000002215720FEF7F2FC00215520FEF7EEFCE3
:101B100000215720FEF7EAFC3220FEF7D2FCBDE898
:101B2000F05FCEA005F02CBCA0F23F10404283B283
:101B3000CE4800B5007805280BD02020FEF7D6FC53
:101B400019462120FEF7D2FC4FF0DA41222008800E
:101B500000BD4E20FEF7CAFC19464F205DF804EB8D
:101B6000FEF7C4BC70B50546C048002400780A28BA
:101B700011D00B280FD000210846FFF7D5FF4FF0FA
:101B8000DA4122200880BA484FF496310580641C5F
:101B90008C42FBD370BD00210220FEF7A7FC002180
:101BA0000320FEF7A3FC00210420FEF79FFCEF2199
:101BB0000520FEF79BFC00210620FEF797FC002184
:101BC0000720FEF793FC01210820FEF78FFC3F2140
:101BD0000920FEF78BFCD2E710B5FFF7A5FF4FF009
:101BE000DA4122200880A1480178A148091F09296B
:101BF00017D2DFE801F005050505161608080500EF
:101C00000188008810BD0188C1F3C70201880088DF
:101C1000C908C0F38700C90241EA4010104380B2EE
:101C200010BD01880088C0F34511C20AC00200EB54
:101C300041101044F3E710B51446B0F5A07F09D267
:101C4000F02907D2FFF770FF2146BDE8104022209F
:101C5000FEF74CBC10BD2DE9F0471F469046894663
:101C60000646089D0DE04C4607E035F8022B21465C
:101C70003046FFF7E0FF641CA4B2BC42F5D3761CEB
:101C8000B6B24645EFD3BDE8F0872DE9F0470546EB
:101C90009146DDF820A098460C4610464D4501D9E6
:101CA000A94685B21846444501D9884684B2A9EBB5
:101CB0000500A8EB040100B20EB250B19EB1B042D3
:101CC0002FDDC0EB46010FB27100404201EB40082E
:101CD00024E0524621462846FFF7ADFF641CA4B21B
:101CE000A045F6D2CFE7524621462846FFF7A3FF8C
:101CF0006D1CADB2A945F6D2C5E75246214628462D
:101D0000FFF799FF6D1CADB2002F04DD641CA4B277
:101D100008EB070001E007EB460007B24D45ECD1A8
:101D20001AE0C6EB40010FB27100404201EB4009DE
:101D300010E0524621462846FFF77DFF641CA4B2FE
:101D4000002F04DD6D1CADB209EB070001E007EBCD
:101D5000460007B24445ECD1524621462846BDE82C
:101D6000F04768E72DE9FF5F894607469B46114625
:101D7000684600F07FF80025EA4600241AF805803E
:101D800009EB0506C4F1070128FA01F0C00707EBCB
:101D90000400B1B280B201D05A4600E00E9AFFF7BB
:101DA0004AFF641CA4B2082CECD36D1CADB2102DFC
:101DB000E3D3BDE8FF9F2DE9F8439946089F1646F7
:101DC0000D4604464FF49C7816F8012BA2F1200032
:101DD0005F2815D24B46294620460097FFF7C2FFE1
:101DE000444502D20834A4B207E0E02D4FF00004CD
:101DF00002D21035ADB200E0002530780028E3D1E2
:101E0000BDE8F8834FF0DA4122200880704700B522
:101E100097B00620009000201021CDE90201049027
:101E200009020190CDE90801069007900A900FA9D8
:101E300005900F220B90CDE90C01CDE90F20CDE9E3
:101E400011201390149015900E91684604F06DF8CF
:101E50000121062004F0FEF817B000BD4C434420D9
:101E6000496E6974204F6B210A00000000000020B9
:101E70000000016D034A02EB01111022A1F500716F
:101E800004F092BF547800082DE9F04387B0012197
:101E9000022004F08DFC0121042004F089FC4FF4A1
:101EA00080480121404604F0A1FCFF4F05220D218E
:101EB000384604F039FB05220E21384604F034FB85
:101EC00005220F21384604F02FFB4FF400500090FC
:101ED00002208DF8040003268DF8056000248DF89B
:101EE000064001258DF807506946384604F0A8FAE7
:101EF00069463846CDF8008004F0A2FAE803009065
:101F00006946384604F09CFA8DF8045010208DF88C
:101F10000640DFF8989300908DF805608DF8075023
:101F20006946484604F08CFA8DF804408DF8064066
:101F300020278DF8056000978DF8075069464846C0
:101F400004F07EFA1021484604F0DFFA01214046F1
:101F500004F04CFCD64D284604F0F0FCADF80840E7
:101F60004FF48270ADF80A00ADF810406815ADF876
:101F700012000720ADF80C40ADF81470ADF8180051
:101F8000ADF80E40ADF8164002A9284604F0FAFC60
:101F90000121284604F085FDC6A005F0F1F907B03F
:101FA000BDE8F08370B5C24D0221284604F00CFE56
:101FB0000028F9D00021284604F0D9FD0121284647
:101FC00004F002FE0028F9D0284604F0CEFD4FF6BA
:101FD000FF7101EA0024012000F013FB02212846D2
:101FE00004F0F2FD0028F9D00021284604F0BFFDDE
:101FF0000121284604F0E8FD0028F9D0284604F025
:10200000B4FD0443C4F3CB0070BD70B5A74C1021E0
:10201000204604F07CFA012000F0F3FA902000F052
:10202000FDFA012000F0EDFAFFF7BCFF0546102194
:10203000204604F06AFA284670BD70B59B4C10210A
:10204000204604F064FA012000F0DBFAD02000F012
:10205000E5FA012000F0D5FAFFF7A4FF05461021AC
:10206000204604F052FA284670BD70B50D4606466B
:10207000FFF7CBFF0446012000F0C3FAFFF7DDFFB6
:102080003460286070BD2DE9F04117460E460546C4
:10209000FFF7D1FD6C1CA0B23A463146FFF7CBFDED
:1020A000761CB1B23A462846FFF7C5FDB1B2A0B2E0
:1020B0003A46BDE8F041FFF7BEBD2DE9FC5F814621
:1020C000801E4FF6FF7482B2A9F10F078846B8B29E
:1020D0000B460094FFF7D9FD09F10F0609F1020044
:1020E0004346B2B280B219460094FFF7CEFDA8F184
:1020F000020083B2A8F10F054A46A9B21046009427
:10210000FFF7C3FD009408F1020008F10F0481B24B
:102110004A46A3B21046FFF7B8FD4BF6F04AA9F1C4
:10212000070BA3B21FFA8BF2A1B2B8B2CDF800A090
:10213000FFF7ABFD08F10700CDE900A081B2A3B223
:10214000BAB2B8B2FFF7A1FDABB21FFA8BF2A9B2D7
:10215000B8B2CDF800A0FFF798FDA8F10708ABB220
:10216000BAB21FFA88F1B8B2CDF800A0FFF78DFD22
:102170001637A3B2B2B2A1B2B8B2CDF800A0FFF741
:1021800084FD0198A3B281B2B2B2CDF800A0B0B282
:10219000FFF77BFDABB2B2B2A9B2B8B2CDF800A0E6
:1021A000FFF773FD1FFA88F3B2B2A9B2B0B2CDF84F
:1021B00000A0FFF76AFDBDE8FC9FF0B595B00024D4
:1021C0004821684604F009FE384E6D4613A912A84E
:1021D000FFF74BFF129845F8240005EB8401139894
:1021E0004862641CE4B22021304604F07AF908B950
:1021F000092CEBD3092C6BD1DDE9000108440299CD
:1022000003270844DDE903121144059A90FBF7F017
:10221000114491FBF7F2DDE906131944089B841A77
:10222000194491FBF7F1551A0E1A002C00DC644298
:10223000002D00DC6D42002E00DC7642022C03DD16
:10224000022D01DD022E5EDC204BAC4205DAA642F7
:1022500001DA084404E0104402E0AE42F9DB501811
:1022600000EBD07040081880DDE9090108440B99A3
:102270000844DDE90C1211440E9A90FBF7F011446A
:1022800091FBF7F2DDE90F142144119C214491FBED
:10229000F7F1841A551A0E1A002C00DC6442002D46
:1022A00000DC6D42002E14E00004024000080240F1
:1022B00000380040546F7563682050616E656C2073
:1022C000496E6974204F6B210A0000000400002051
:1022D00019E000DC7642022C03DD022D01DD022E26
:1022E00011DCAC4205DAA64201DA084404E01044ED
:1022F00002E0AE42F9DB501800EBD0704008588085
:10230000D24815B0F0BD0020FBE72DE9F0470C46A0
:1023100005460988208916460A1AE388618901273B
:102320005B1A5A43A388C01A6388591A00FB01201C
:1023300004F004FF41EC100B86ED0C0B9FEDC41B69
:1023400053EC112B04F032FF01D1002781E02988E2
:102350002889E3880A1A61895B1A5A43AB88C01A34
:102360006388591A00FB012004F0E8FEC6E9000169
:1023700021882089AB880A1A29895B1A5A432B883D
:10238000C91AA388181A01FB002004F0D7FEC6E979
:102390000201A9882389894603FB01F0A2882989C3
:1023A00002FB110C60880CFB00FC208800FB01F88C
:1023B000298803FB1183B4F806804A4303FB08C352
:1023C00000FB1920618900FB013004F0B7FEC6E96B
:1023D000040169886889E3880A1A61895B1A5A438B
:1023E000EB88C01A6388591A00FB012004F0A6FE8E
:1023F000C6E9060121882089EB880A1A69895B1AD7
:102400005A436B88C91AA388181A01FB002004F0EC
:1024100095FEC6E908012289B5F80680A1886B8976
:1024200002FB08F001FB130C60886D880CFB00FCBC
:1024300020886943434302FB1532E38800FB1810F0
:1024400002FB03C2618900FB012004F077FEC6E9AC
:102450000A013846BDE8F0872DE9F04114462DED1C
:10246000028B0D4692ED0C0B074601269FED781B63
:1024700051EC100B53EC112B04F098FE4ED06888F1
:1024800004F06DFE94ED021B53EC112B04F075FD6E
:1024900041EC180B288804F062FE94ED001B53EC0D
:1024A000112B04F06AFD53EC182B04F0BFFC94EDE3
:1024B000041B53EC112B04F0B9FC94ED0C1B53ECF2
:1024C000112B04F0CCFD04F057FE3880688804F02E
:1024D00046FE94ED081B53EC112B04F04EFD41EC2D
:1024E000180B288804F03BFE94ED061B53EC112BCF
:1024F00004F043FD53EC182B04F098FC94ED0A1BF8
:1025000053EC112B04F092FC94ED0C1B53EC112BAB
:1025100004F0A5FD04F030FE788000E00026BDEC5C
:10252000028B3046BDE8F0812DE9F84305460024D2
:102530004FF478484FF496774FF6FF760020FFF778
:1025400011FB434644A20A212C200096FFF733FCDE
:1025500000210020401C80B2B042FBD3491C89B24C
:10256000B942F6D33948001D00EB840130F824004D
:102570004988FFF7A2FDFFF720FE0028FBD03E4967
:10258000028821F8242001EB840142884A800188D6
:1025900025F8241005EB8402418851804388028885
:1025A000214636A004F0ECFE641CE4B2032CC5D333
:1025B000314A2648383A3049001DFFF7A6FEBDE8EB
:1025C000F8430020FFF7CEBA10B52B4A002102EBEA
:1025D000810430F8213022F8213000EB8103491CBE
:1025E0005B88C9B263800329F1D3234A1748383A7C
:1025F0002149001DFFF789FEBDE810400020FFF7CC
:10260000B1BA01B5002105E00C20401EC0B2FCD2D9
:10261000491C89B200988142F6D308BD70B51D4CA3
:1026200005460221204604F0CFFA0028F9D02946B9
:10263000204604F09CFA0121204604F0C5FA002847
:10264000F9D02046BDE8704004F08FBA04000020A5
:102650000000000000000000546F75636820637282
:102660006F73736861697220746F2063616C696253
:10267000726174650000000088000020693A20251E
:10268000643B20783A2025643B20793A2025643B3E
:102690000A000000003800401CB5334C0722092115
:1026A000204603F041FF0221080200908DF804103B
:1026B00003208DF8050000218DF806108DF8071015
:1026C0006946204603F0BCFE28485B2101818189D0
:1026D00042F208021143818125A004F051FE1CBD85
:1026E000224904E00B881B06FCD58A80401C027836
:1026F000002AF7D1704703B56846FFF7F1FF00984D
:102700000CBD70B50D46064600240BE0200703D132
:1027100014B11BA004F034FE315D1AA004F030FEA9
:10272000641CA4B2AC42F1D3BDE8704017A004F021
:1027300027BE70B50D46064600240CE0A00703D165
:1027400014B10FA004F01CFE56F8241017A004F0DA
:1027500017FE641CA4B2AC42F0D3BDE8704015A0D3
:1027600004F00EBE7047000000000240001001405F
:10277000446562756720496E6974204F6B210A00B9
:102780000A00000025303258200000000A2D2D2DAF
:102790002D2D2D2D2D2D2D2D2D2D2D2D2D2D2D2D69
:1027A0002D2D2D2D2D2D2D0A0000000025303858FF
:1027B000200000000A2D2D2D2D2D2D2D2D2D2D2D00
:1027C0002D2D2D2D2D2D2D2D2D2D2D2D2D2D2D2D39
:1027D0002D2D2D2D0A00000030B50722A0FB02355B
:1027E00001FB0251002400FB04115B1E41F1FF318B
:1027F000DA4372EA0102F8D130BD30B541F6583201
:10280000A0FB023501FB0251002400FB04115B1EFA
:1028100041F1FF31DA4372EA0102F8D130BD000024
:1028200010B564200021FFF7E8FF0A4940F20710C5
:10283000086009480168094A1143016006481030E0
:102840000168074A11430160001D0168054A1143F0
:10285000016010BD003C024030380240FF016000C2
:10286000FF010200135107000022134601E08354C8
:10287000521C8A42FBD3704770B58048016800291A
:102880001ED0002101607F487D4D0C460068401C31
:1028900002D00B2000F074F943F2A90014FB00F001
:1028A00005EB80004CF2A422774900F097F97748B5
:1028B0002146D0F89C22BDE8704075A004F060BDB0
:1028C00070BD2DE9F0474CF2A4216F48FFF7CCFF13
:1028D00018216A48FFF7C8FF0025DFF8ACA1A84619
:1028E000012642F2107940F29F1005FB00F10AEB3D
:1028F000810404F5CD6726606FA1384604F08DFA97
:102900003A4610462B466EA104F04AFD6D1C05EBBD
:102910008500256140006060C5EB0510A060C5EB37
:1029200005104000E060C4F82463C4F83083C4F8A4
:102930002883C4F82C8305EB8500C4F8406380002D
:10294000C4F8340305EBC50000EB0510C4F83803E8
:1029500005EB8500C000C4F83C03C4F85466C4F815
:1029600060864146C4F85886C4F85C16ADB2C4F817
:1029700064960E2DB7D3544C54A104F5CD60266057
:10298000054604F04AFA2A4653A1104604F008FD11
:1029900026610A2363601E25E5600220206214225E
:1029A00062613C21E161C4F82403C4F83083C4F8B7
:1029B0002883C4F82C83C4F84063C4F8342332223B
:1029C000C4F83C23C4F85003C4F84433C4F84C237F
:1029D0000323C4F86033C4F8545304F25460C4F8B9
:1029E0005C2341460360C16041608160C0F8109083
:1029F0003B483A4A026045F2AA52C2604160816097
:102A000038A004F0BDFC1D480660BDE8F04733E780
:102A1000704770B54FF4003136A004F0B1FC0024CB
:102A2000174D214637A004F0ABFC43F2A90014FB7C
:102A300000F005EB8001144A00204CF2A4230C5C4A
:102A40001454401C9842FAD3BDE8704035A004F0FD
:102A500097BC10B537A004F093FCFFF7DAFF0B48E2
:102A6000D0F8A002A0F5AA41AA3901D0FFF729FFAA
:102A7000BDE8104035A004F083BC000038C300203E
:102A800000000E089CC20E089400002094C0002094
:102A900053657474205361766520706F733A2027F4
:102AA0002564272C2069643A2027256427202D20BF
:102AB0004F6B210A0000000047552D3031280000DF
:102AC00025732564290000005C5B00204675636B5C
:102AD000204D65210000000025730000F56C85780D
:102AE00028C3002053657474204E756C6C204F6BA6
:102AF000210A0000736574745F6C6F61643A20256D
:102B000064200A0053656172636820736574746998
:102B10006E6720706F736974696F6E203D20256445
:102B20003B0A000053657474204C6F6164204F6B46
:102B3000210A000053657474696E6720496E6974D8
:102B40002053746172742E2E2E0A00005365747423
:102B5000696E6720496E6974204F6B210A0000007E
:102B600032480168C903FCD43048001D00680028C1
:102B700005DA2E482E49083801602E490160704759
:102B80002D4B00B50246188820F00400188072B65C
:102B9000FFF7E6FF2549091D086840F002000860BC
:102BA000086820F078000860086840EAC200086001
:102BB000086840F480300860081F0268D203FCD423
:102BC0000268D20701D0012202604FF00040086085
:102BD00062B6188840F00400188000BDF0B50F46BA
:102BE0000546FFF7BDFF114C0023201D012115E014
:102BF0002668F603FCD4066846F001060660FE5C13
:102C0000EE542668F603FCD42668F60700D021604F
:102C1000066826F0010606605B1C9BB29342E7D370
:102C2000016841F000410160F0BD00000C3C024031
:102C300023016745AB89EFCD0C4400400020FE49DD
:102C4000FE4B08808882C8808880088440F29F12EA
:102C5000424303EB8202126832B1CA88401C521C04
:102C600080B2CA801E28F1D3F5A004F089BB2DE9FB
:102C7000F04707460D46861801EB0308DDF8209063
:102C80000CE03C4606E04A4629462046FEF7D3FFC4
:102C9000641CA4B2A642F6D86D1CADB2A845F0D80B
:102CA000BDE8F087F8B506461F2000901F46144681
:102CB0000D463046FFF7DBFF4FF2DE700090201F1D
:102CC00082B205F118001A3F81B2B61CBBB2B0B295
:102CD000FFF7CDFFA81C81B24FF4784604F108003D
:102CE000142380B21A460096FFF7C1FF2D1D0E3443
:102CF000A9B2A0B24FF6FF73D5A20096FFF75BF81A
:102D0000F8BD2DE9F0479946831A8E189DB2A1EBC4
:102D1000020887180DE01FFA88F406E04A462146AB
:102D20002846FEF788FF641CA4B2A642F6D86D1CA4
:102D3000ADB2AF42EFD8B3E72DE9F84F4FF6E074EC
:102D4000192350220021F0200094FFF790FF002368
:102D5000C0A20421FC200094FFF72DF8B64F0626F0
:102D6000B988F888491C01EB4101B0EB410F04D24E
:102D7000C0EB4100C0F1060086B20024A046232526
:102D8000C4EB041005EB400081B214235022F02064
:102D9000CDF80080FFF76BFF641CA4B2062CEFD3C4
:102DA0000024DFF898A24FF0250B2FE0B888B98AED
:102DB00000EB400004EB4000814202D14FF61F09B6
:102DC00001E047F6FF79C4EB041805EB480081B237
:102DD00014235022F020CDF80090FFF748FFCDF8E3
:102DE0000090B88840F29F1100EB400004EB4000D7
:102DF00048430AEB80020BEB480081B20023F0202D
:102E000002F26962FEF7D7FF641CA4B2B442CDD3CC
:102E10004FF6E07419235022D721F0200094FFF7D9
:102E200026FF00238DA2DB21F5200094FEF7C3FFCF
:102E3000BDE8F88F7FB54FF6E07414231A46DC2105
:102E400000200094FFF713FF002387A2DE21052056
:102E50000094FEF7B0FF47F6FF7514233C22DC21F7
:102E600018460095FFF703FF734880A1028801A868
:102E7000521C04F095FA002301AADE2119200095C6
:102E8000FEF799FF14231A46DC2150200094FFF727
:102E9000EEFE002377A2DE2155200094FEF78BFF83
:102EA0007FBD30B442F210720A23914207D2B1FBC7
:102EB000F3F2B1FBF3F403FB14136FA10AE0B1FBCF
:102EC000F2F24FF47A74B1FBF4F1B1FBF3F403FBCB
:102ED00014136BA130BC04F063BA012902D06AA1BB
:102EE00004F05EBA69A1FBE7012902D068A104F0F1
:102EF00057BA69A1FBE713460A4669A104F050BA24
:102F00002DE9FF474FF4FC670021142332220846C5
:102F10000097FFF7ACFE0221002364A20846009749
:102F2000FEF749FF4FF6E0761423322215210020E8
:102F30000096FFF79CFE404C208800287AD05CA1C8
:102F400001A804F02DFA002301AA172102200096FF
:102F5000FEF731FF4FF6E055142332222A210020DC
:102F60000095FFF784FE2088002864D052A101A8B4
:102F700004F016FAA846002301AA2C21022000958D
:102F8000FEF719FF14233C22002133200097FFF79E
:102F90006EFE00234AA2022137200097FEF70BFFA6
:102FA00014233C22152133200096FFF760FE208871
:102FB00040F29F110028A08A204D00FB01F0A1697A
:102FC00005EB800000EB01107ED0816801A8FFF7BF
:102FD00068FFB146002301AA172135200096FEF7AD
:102FE000EAFE464614233C222A213320CDF80080F5
:102FF000FFF73DFE208840F29F110028A08A00FBC9
:1030000001F0E16905EB800000EB01107ED0D0F803
:10301000381301A8FFF745FF002301AA2C21352012
:103020000096FEF7C8FE14233C220021B84670200B
:1030300000974AE0D9E0DAE0D0EF002094000020C9
:103040004D656E7520496E6974204F6B210A000032
:103050005800000050616765205570005061676539
:1030600020446F776E0000003C0000004D656E75D7
:10307000202564003E00000025642E256475730041
:1030800025642E25646D73004F6666004F6E000048
:103090005374726169672E005265766572736500BC
:1030A00050756C73652025642F25640000000000B6
:1030B0004348312832290000434832283229000091
:1030C00044757261742E000093E0FFF7D0FD002379
:1030D000FEA202217620CDF80080FEF76CFE4F465E
:1030E00014233C2215217020CDF80090FFF7BFFD7E
:1030F000A08A40F29F114843A16905EB800000EBD4
:103100000110C16801A8FFF7CCFE00E073E00023C6
:1031100001AA172172200097FEF74DFE14233C22CE
:103120002A2170200096FFF7A2FDA08A40F29F118D
:103130004843E16905EB800000EB0110D0F83C1337
:1031400001A8FFF7AEFE002301AA2C2172200096F1
:10315000FEF731FE14233C220021AD20CDF8008083
:10316000FFF785FD0023DBA20221B220CDF800800D
:10317000FEF721FE14233C221521AD200097FFF716
:1031800076FDA08A40F29F114843A16905EB8000BB
:1031900000EB0110D1A1026901A804F001F900239C
:1031A00001AA1721C1200097FEF705FE14233C2237
:1031B0002A21AD200096FFF75AFDA08A40F29F1108
:1031C0004843E16905EB800000EB0110C3A1D0F892
:1031D000402301A804F0E4F8002301AA2C21C12017
:1031E0000096FEF7E8FDBDE8FF87BDA1A8E6BEA1F9
:1031F000BDE64168EAE6D0F834130AE72DE9FF415D
:103200004FF4FC6514233222462100200095FFF77D
:103210002EFD0023AFF26C12482102200095FEF72C
:10322000CAFD4FF6E074142332225B210020009483
:10323000FFF71DFDAE4E4FF00003308800940028CC
:103240007ED0AFF294125D210220FEF7B4FD4FF65E
:10325000E05714233222702100200097FFF707FD6A
:1032600030884FF00003002800976AD0AFF2B81200
:1032700072210220FEF79FFD14233C2246213320B9
:103280000095FFF7F4FC00239AA248214320009503
:10329000FEF791FDA04614233C225B2133200094CD
:1032A000FFF7E5FCB08A40F29F11944C484304EBD1
:1032B0008000D0F8301301A8FFF7F3FD002301AA26
:1032C0005D213520CDF80080FEF775FD14233C22EA
:1032D000702133200097FFF7CAFCB08A40F29F119B
:1032E000484304EB8000D0F8601601A8FFF7D9FD31
:1032F000002301AA722135200097FEF75CFD1423FC
:103300003C22462170200095FFF7B1FC00237CA2EF
:10331000482175200095FEF74EFD14233C225B21C9
:103320007020CDF80080FFF7A2FC308840F29F119A
:103330000028B08A00FB01F004EB800077D001E0A8
:1033400071E072E0D0F82C1301A8FFF7CDFD002347
:1033500001AA5D217220CDF80080FEF72CFD7021BE
:1033600014233C2208460097FFF781FC308840F286
:103370009F110028B08A00FB01F004EB800059D0B7
:10338000D0F85C1601A8FFF7AFFD7221002301AA57
:1033900008460097FEF70FFD14233C224621AD207E
:1033A0000095FFF764FC002357A24821B220009546
:1033B000FEF701FDB0463088554E4FF4784788B38C
:1033C000F16801A8FFF789FDF06801283BD03C4671
:1033D00014233C225B21AD200094FFF748FC00231E
:1033E00001AA5D21BF200094FEF7E5FCB8F80000BB
:1033F00058B3716901A8FFF770FD7069012800D00A
:103400003D4614233C227021AD200095FFF72FFC90
:10341000002301AA7221BF200095FEF7CCFCBDE875
:10342000FF8104E009E02EA20DE72FA220E7D0F8EB
:10343000281389E7D0F85816A4E7B16801A8FFF768
:103440004CFDB068C1E72C46C2E7316901A8FFF71F
:1034500044FD3069D2E72DE9FF474FF6E0741423AD
:1034600032228C2100200094FFF701FC002329A2C6
:103470008E210D200094FEF79EFC4FF6E05514239C
:103480003222A12100200095FFF7F1FB002322A2A8
:10349000A3210D200095FEF78EFC14231A468C21E3
:1034A00033200094FFF7E3FB0023AFF244428E2168
:1034B00038200094FEF77FFC47F6FF78142364223F
:1034C0008C214720CDF8008028E00000506572690B
:1034D0006F640000416D6F756E740000256400001C
:1034E000434831283129000043483228312900005F
:1034F000D0EF0020426961730000000094000020BA
:10350000506F6C61722E00004F6E2F4F6666000088
:1035100038C300204348310043483200FFF7A7FB7F
:10352000FE4E40F29F11DFF8F893B08A484309EB52
:103530008000B169D0F8242301A8491CFFF7DBFC07
:10354000002301AA8E214C20CDF80080FEF733FC29
:1035500014231A468C21AB200094FFF788FB00232C
:10356000AFF2F0428E21B0200094FEF724FC4FF41D
:10357000FC6414231A468C21C0200094FFF777FBCB
:103580000023E8A28E21C5200094FEF714FC4FF41E
:10359000784714231A468C21D5200097FFF767FB44
:1035A0000023E1A28E21DA200097FEF704FC142309
:1035B0001A46A12133200095FFF759FB0023AFF2F3
:1035C0005852A32138200095FEF7F5FB14236422FE
:1035D000A1214720CDF80080FFF749FBB08A40F2D7
:1035E0009F11484309EB8000F169D0F8542601A8E7
:1035F000491CFFF780FC002301AAA3214C20CDF831
:103600000080FEF7D8FB14231A46A121AB200095B9
:10361000FFF72DFB0023AFF2A452A321B0200095A9
:10362000FEF7C9FB14231A46A121C0200094FFF71E
:103630001EFB0023BBA2A321C5200094FEF7BBFB09
:1036400014231A46A121D5200097FFF710FB002371
:10365000B5A2A321DA200097FEF7ADFBC3E51FB5A5
:103660004FF4FC6414235A22BE2100200094FFF77B
:10367000FEFA0023ADA2C02104200094FEF79BFBBC
:103680004FF6E07414234622BE215B200094FFF71E
:10369000EEFAA24840F29F11808A4843A04901EB0C
:1036A0008000D0F8641601A8FFF7FBFB002301AAF5
:1036B000C0215F200094FEF77EFB1FBD38B54FF69A
:1036C000FF7414232822DC2164200094FFF7CFFA32
:1036D000002399A2DE2164200094FEF76CFB4FF4D6
:1036E0007840142300901A46DC218C20FFF7BFFAA3
:1036F0004FF6E050142300901A46DC21A020FFF77B
:10370000B6FA4FF6E070142300901A46DC21B4207C
:10371000FFF7ADFA4FF4FC60142300901A46DC2149
:10372000C820FFF7A4FA1F201423DC2100901A46BA
:103730000846FFF79CFA4FF61F00142300901A4624
:10374000DC21F020FFF793FA6010142300901A4652
:10375000DC214FF48270FFF78AFA14231A46DC2129
:103760004FF48C700094FFF782FA0020142300902D
:103770001A46DC214FF49670FFF779FA38BD1FB571
:103780000020009018234A224E218020FFF76FFA74
:103790004FF6FF7414234622502182200094FFF735
:1037A00066FA5E4890F82510806A69B1AFF2D421BC
:1037B000026801A803F0F4FD002301AA502184202F
:1037C0000094FEF7F8FA1FBD016801A8FFF769FB36
:1037D000F2E7F8B5FFF72EFB00201E210090B4237E
:1037E0004FF482720846FFF75DFAFFF7C8FF4FF605
:1037F000E05523221E237D2110460095FFF737FA5E
:1038000000234FA2892130200095FEF7D4FA23220D
:1038100014239C2110460095FFF729FA3F4E4FF0E4
:10382000000396F825000095002875D045A29E213A
:103830003020FEF7C0FA23221E23B1211046009546
:10384000FFF715FA002340A2B72130200095FEF7BC
:10385000B2FA4FF6E0741E2323227D214720009404
:10386000FFF705FA002336A2892154200094FEF7C1
:10387000A2FA142323229C2147200094FFF7F7F992
:1038800096F825004FF000030028009445D02FA2A1
:103890009E214F20FEF78FFA1E232322B1214720BD
:1038A0000094FFF7E4F9002327A2B72154200094E5
:1038B000FEF781FA1E2323227D216B200095FFF75E
:1038C000D6F900231EA2892178200095FEF773FA0D
:1038D000142323229C216B200095FFF7C8F996F84A
:1038E00025004FF00003002800957DD018A29E21EE
:1038F0006F20FEF760FA1E232322B1216B20009572
:10390000FFF7B5F9002310A2B72178200095FEF744
:1039100052FA96F825001DE0FBE0FEE0D0EF002013
:1039200094000020410000004400000050657269CE
:103930006F6420416C6C0000436C65617200000094
:103940005E00000031000000760000003130000011
:103950003130300000287DD11E2323227D218F208D
:103960000094FFF784F90023AFF22C0289219C20F8
:103970000094FEF720FA142323229C218F20009428
:10398000FFF775F90023AFF238029E2193200094CF
:10399000FEF711FA1E232322B1218F200094FFF796
:1039A00066F90023AFF26002B7219C200094FEF775
:1039B00002FA1E2323227D21B3200095FFF757F939
:1039C0000023AFF284028921C0200095FEF7F3F9AD
:1039D000142323229C21B3200095FFF748F90023EC
:1039E000AFF2A0029E2100E09CE0C0200095FEF70F
:1039F000E2F91E232322B121B3200095FFF737F906
:103A00000023AFF2BC02B721C0200095FEF7D3F926
:103A10001E2323227D21D7200094FFF728F90023BD
:103A2000AFF2E4028921E4200094FEF7C4F91423E4
:103A300023229C21D7200094FFF719F90023AFF22D
:103A4000F4029E21DF200094FEF7B5F91E23232205
:103A5000B12100E05CE0D7200094FFF708F90023D3
:103A6000AFF21C12B721E4200094FEF7A4F91E2344
:103A700023227D21FB200095FFF7F9F80023AFF208
:103A800040124FF48474892120460095FEF793F983
:103A9000142323229C21FB200095FFF7E8F8002344
:103AA000AFF254129E21FF200095FEF784F91E23E9
:103AB0002322B121FB200095FFF7D9F80023AFF2B4
:103AC0007812B72120460095FEF775F996F8250083
:103AD00000281DD14FF4FC6414238F226921232078
:103AE0000094FFF7C4F8002387A26C2161200094A2
:103AF000FEF761F914236B226921B3200094FFF7CC
:103B0000B6F8002381A26C21E1200094FEF753F95E
:103B1000F8BD9E217EA228208BE6AFF2D8129E210E
:103B20005420B7E6AFF2DC129E217320E1E62DE9C6
:103B3000FF414FF4FC6400211423642208460094E2
:103B4000FFF795F80221002372A208460094FEF7C1
:103B500032F914236422002165200094FFF787F8CE
:103B60006F48009440F29F11808A002348436D49BA
:103B700001EB80020221672002F26962FEF71BF965
:103B80004FF47845142364220021DC200095FFF7D0
:103B90006EF8002364A20221DE200095FEF70BF9E7
:103BA00014236E22192100200094FFF760F80023EF
:103BB00061A21B2102200094FEF7FDF820208DF861
:103BC000040000208DF80500054600249DF804003F
:103BD0007F2824D2C5EBC50000EB400707F1350074
:103BE00081B2C4EBC40000EB40064FF6E07806F16A
:103BF0000F00142380B21A46CDF80080FFF737F883
:103C000036371536B9B2B0B2002301AACDF800801C
:103C1000FEF7D1F89DF80400401C8DF80400641CE8
:103C2000A4B20E2CD2D36D1CADB2072DCDD34FF65E
:103C3000E05414233E22B321F6200094FFF717F836
:103C4000002341A2B4214FF480700094FEF7B3F832
:103C50004FF6FF7414233C22DC21A0200094FFF7D0
:103C600006F800233AA2DE21AC200094FEF7A3F868
:103C7000BDE8FF8138B50020FDF774FF4FF4FC6408
:103C80006E23DC22462132200094FEF7F0FF002351
:103C900031A278213C200094FEF78DF838BD38B56C
:103CA0001F4D2888052825D2DFE800F003030E11F8
:103CB0002200FFF725F9FFF7A1FAFFF7CCFBFFF78A
:103CC0003BF8FFF7CCFC15E0FFF7F8FC12E04FF6ED
:103CD000FF7432216423DC2208460094FEF7C7FFFC
:103CE000002324A25A2164200094FEF764F801E026
:103CF000FFF71DFFFFF79EF895F82400002802D07B
:103D0000BDE8384065E538BD757300006D7300008F
:103D1000302E31004E616D652070726F672E3A0053
:103D2000D0EF00209400002044656C65746520701D
:103D3000726F672E00000000416464206E6577207A
:103D400070726F672E000000426373702E000000D7
:103D5000536176650000000053657474696E677383
:103D60002068617665206265656E207361766564A2
:103D70002100000043616C69627261746520546FB8
:103D80007563683F0000000010B56BA003F0F8FAFF
:103D9000BDE810406EA003F0F3BA10B501224260F6
:103DA000002341B1A82240F6AC544A43A14204D2B8
:103DB00003600A211EE003601FE048F6B803994241
:103DC00003D209210160642114E0664B994204D2B8
:103DD000632101604FF47A710CE0634B994205D284
:103DE00040F2E731016042F2107103E042F20F71DC
:103DF00001605E49B2FBF1F14160006810BD5422E0
:103E000010B500234A43B1F52F7F02D20360426010
:103E100025E041F65834A14202D203600A211BE09A
:103E2000534B994203D209210160642114E0514BA4
:103E3000994204D2632101604FF47A710CE04E4B39
:103E4000994205D240F2E731016042F2107103E07D
:103E500042F20F7101604549B2FBF1F14160006827
:103E600010BD2DE9F00300231E4699462AE00025E7
:103E700001EB061221E0946854277C430A27B4FB27
:103E8000F7FC03EB830400EB84044FF05408C4F800
:103E900004C0D2F800C06D1C0CFB08FCBCFBF7FC96
:103EA000C4F80CC0D2F804C0ADB20CFB08FCBCFBDB
:103EB000F7F72761C4F808905B1CD468AC42DAD8E5
:103EC000761CB6B2D1F82023B242D0D80024C0F874
:103ED000A83F4D4601261A1902EB820200EB82022E
:103EE000641C15605660D560156124B29560022C83
:103EF000F1DBD1F82423C0F8AC2FD1F82823C0F887
:103F0000B02FD1F82C13BDE8F00300F57A6044E738
:103F100010B50446011D1948FFF7A3FF04F54D71C4
:103F20001748FFF79EFFD4F864161648FFF767FF9F
:103F3000BDE8104000F028B84465766963657320D9
:103F4000496E69742053746172742E2E2E0A00001B
:103F50004465766963657320496E6974204F6B21EF
:103F60000A00000030570500E0673500A086010018
:103F70007011010060AE0A00C0CF6A0050C300207B
:103F800008D30020C0E200202DE9FC5FF8A003F078
:103F9000F7F94FF0020A8DF804A003208DF8050010
:103FA0000020F94D8DF806008DF80700A862286101
:103FB000402000906946F54802F042FA02220621AC
:103FC000F24802F0B1FAF24CF249B4F8700F0880EE
:103FD000091DD4F8740F0860EE491C39098841F0B6
:103FE0000102EC491C390A80EA4924390988E94A66
:103FF00041F02001243A1180E64910390988E54A48
:1040000041F06001103A1180E24908390A8842F013
:1040100001020A80DF4940080C310860DD48283879
:10402000018841F080010180018841F00101018097
:1040300005211E2000F0D0F91E2000F08EF9DFF8D7
:1040400058834FF40040009069464646404602F0CF
:10405000F7F901220F21304602F066FA082000909D
:104060006946CA4802F0ECF901220321C74802F070
:104070005BFAA4F58056C948B6F8A01F0185D6F8AA
:10408000A41FC162018941F036010181818941F09B
:1040900001018181818841F020018180018841F006
:1040A000880101800521192000F096F9192000F0FF
:1040B00054F9294600208862B9488862D6F8A80FCA
:1040C00000EB80000A30C8624E63B6480863886A15
:1040D00040F01100886201210C2000F07DF90C20D5
:1040E00000F03BF94FF0804000210185A821C1621A
:1040F000542646638663018821F07001018001889F
:1041000041F080010180A84FB9680129018B7DD061
:1041100021F060010183F9680129018B77D021F436
:10412000C0410183018B40F6080B41EA0B0101837A
:10413000818941F480718181B0F8481040F20A49C8
:1041400041EA0901A0F84810B0F8441041F40041D8
:10415000A0F84410954AD2F8AC1F01B10221D2F860
:10416000B02F02B12022114341F0110101840189D5
:1041700041F006010181012000906946404602F0AD
:104180005FF902220021404602F0CEF9694640461E
:10419000CDF800A002F054F902220121404602F0BD
:1041A000C3F98349B4F8580F0880091DD4F85C0F8F
:1041B00008607F482038018841F026010180001DF9
:1041C000018841F00101018079482438018841F0DB
:1041D00020010180001F018841F088010180052134
:1041E0002C2000F0F9F82C2000F0B7F84FF0000870
:1041F000C5F810806F482861D4F8600F00EB80008C
:104200000A30686162484838E86101E061E063E0D3
:104210006948A861286940F01100286101210B203C
:1042200000F0DAF80B2000F098F863492439A1F87F
:104230000080A820091D08605F4818380660001D2E
:1042400006605D484C38018821F0700101800188CA
:1042500041F08001018058483969343801290188CA
:104260003DD021F06001018079690129018839D0B0
:1042700021F4C0410180018841EA0B0101804E48D0
:104280004038018841F4807101804B49091F0A8838
:1042900042EA09020A80081F018841F400410180B6
:1042A000D4F8640F00B10220D4F8681F01B12021B6
:1042B0000843414940F011002C3908803E484438F9
:1042C000018841F0360101803CA003F059F8BDE8B7
:1042D000FC9F41F060011DE741F4C04121E741F03E
:1042E0006001C0E741F4C041C4E72A490020183901
:1042F000088037480068010736484FF0080101D5AB
:1043000002F005B902F001B9244900200882704783
:10431000274900201839088070474FF080400188F5
:1043200021F0010101801848816841F474618160C5
:10433000816A41F00101816270471F484C38018851
:1043400021F0010101801048816841F03D01816048
:10435000016941F001010161704700F01F02012174
:1043600091404009800000F1E020C0F80011704742
:1043700054696D65727320496E697420537461725B
:10438000742E2E2E0A00000000600240000402403D
:1043900050D30020280800400000024000000140E7
:1043A000405403064C00004038C3002050C3002096
:1043B000280401404054030C4C0C004054696D65C6
:1043C000727320496E6974204F6B210A000000004F
:1043D000141C0240001C02400907090E002806DADE
:1043E00000F00F0000F1E02080F8141DBFE700F19D
:1043F000E02080F80014BAE770B5FD4D4FF48074EA
:104400002146284602F081F8FA4E0821304602F093
:104410007CF80421304602F078F80121284602F0A9
:1044200074F80421284602F070F80221284602F0B0
:104430006CF81021304602F068F84021304602F056
:1044400064F82021304602F060F88021304602F006
:104450005CF86100304602F058F82146304602F020
:1044600054F8A100304602F050F82101304602F025
:104470004CF8E100304602F048F86101304602F0A5
:1044800044F8E101304602F040F8A1013046BDE8B1
:10449000704002F03AB81CB501208DF804000320EA
:1044A0008DF8050000208DF806008DF807004FF606
:1044B000FC7000906946CF4801F0C2FF40F207103F
:1044C00000906946CA4801F0BBFFFFF795FF1CBD8D
:1044D0002DE9F047C84840F29F11808A4843C749F8
:1044E00001EB8000C6A100F2696002F088FC48B1CF
:1044F000BF4C61692046C9074FF0010106D002F0A8
:1045000006F805E0BDE8F04701F0C0BC01F0FDFF92
:104510000421204601F0FBFF0221204601F0F7FFB5
:10452000B94EB44CB94FB0684FF010010128204685
:1045300046D001F0ECFF4021204601F0E6FF2021AB
:10454000204601F0E2FF3069B14D01284FF40078B8
:104550004FF480794FF08001204645D001F0D7FF1D
:104560004146204601F0D1FF4946204601F0CDFFEB
:10457000F0684FF4806101284FF480584FF40069CF
:10458000204645D001F0C3FF4146204601F0BDFF63
:104590004946204601F0B9FF4FF4005170698E0082
:1045A0004F000128204647D001F0B1FF3146204698
:1045B00001F0ABFF39462046BDE8F04701F0A5BF4A
:1045C00001F0A3FFD7F8AC0F28B14021204601F03D
:1045D0009CFF202104E02021204601F096FF40218D
:1045E000204601F094FFAEE701F08FFFD5F8640F8D
:1045F00028B14146204601F088FF494604E049467B
:10460000204601F082FF4146204601F080FFAFE7DF
:1046100001F07BFFD7F8B00F28B14146204601F0EA
:1046200074FF494604E04946204601F06EFF4146CA
:10463000204601F06CFFAFE701F067FFD5F8680F87
:1046400028B13146204601F060FF394604E0394682
:10465000204601F05AFF31462046BDE8F04701F000
:1046600056BF2DE9F05F634D0024614E4FF4806723
:104670004FF400584FF400794FF4805A4FF4004B38
:10468000143528684FF01001C0065A4802D501F0D1
:104690003EFF01E001F039FF1E200021FEF7ADF8DA
:1046A00028684FF080010006524802D501F02FFF24
:1046B00001E001F02AFF1E200021FEF79EF8286885
:1046C000394640054B4802D501F021FF01E001F0D9
:1046D0001CFF1E200021FEF790F828684146800448
:1046E000444802D501F013FF01E001F00EFF1E2047
:1046F0000021FEF782F870694FF00101C0073046D3
:1047000002D001F004FF01E001F0FFFE1E200021B5
:10471000FEF773F828684FF01001C006354802D53F
:1047200001F0F5FE01E001F0F0FE1E200021FEF791
:1047300064F828684FF0800100062E4802D501F089
:10474000E6FE01E001F0E1FE1E200021FEF755F833
:10475000286839464005274802D501F0D8FE01E017
:1047600001F0D3FE1E200021FEF747F828684146DD
:104770008004204802D501F0CAFE01E001F0C5FE28
:104780001E200021FEF739F870694FF00101C007C3
:10479000304602D001F0BBFE01E001F0B6FE1E2063
:1047A0000021FEF72AF828684FF040014006114822
:1047B00002D501F0ACFE01E001F0A7FE1E200021B1
:1047C000FEF71BF82868494680050A4802D501F023
:1047D0009EFE01E001F099FE1E200021FEF70DF87B
:1047E00028685146C004034814D501F090FE13E038
:1047F00000200240001C0240D0EF00209400002066
:10480000656C6B610000000038C3002050C30020BD
:1048100050D3002001F079FE1E200021FDF7EDFFAE
:10482000286859460004804802D501F070FE01E076
:1048300001F06BFE1E200021FDF7DFFF70694FF0D5
:1048400004014007304602D501F061FE01E001F0AD
:104850005CFE1E200021FDF7D0FF28684FF04001CC
:104860004006714802D501F052FE01E001F04DFE14
:104870001E200021FDF7C1FF2868494680056A48CF
:1048800002D501F044FE01E001F03FFE1E200021B0
:10489000FDF7B3FF28685146C004634802D501F014
:1048A00036FE01E001F031FE1E200021FDF7A5FFDC
:1048B0002868594600045C4802D501F028FE01E052
:1048C00001F023FE1E200021FDF797FF70694FF0D5
:1048D00004014007304602D501F019FE01E001F065
:1048E00014FE1E200021FDF788FF28684FF02001EC
:1048F00080064D4802D501F00AFE01E001F005FEF8
:104900001E200021FDF779FF28684FF48071C00553
:10491000454802D501F0FBFD01E001F0F6FD1E2047
:104920000021FDF76AFF28684FF4006100053E484A
:1049300002D501F0ECFD01E001F0E7FD1E200021B1
:10494000FDF75BFF28684FF480414004364802D5EC
:1049500001F0DDFD01E001F0D8FD1E200021FDF792
:104960004CFF70694FF002018007304602D501F01C
:10497000CEFD01E001F0C9FD1E200021FDF73DFF45
:1049800028684FF020018006274802D501F0BFFDBE
:1049900001E001F0BAFD1E200021FDF72EFF28687E
:1049A0004FF48071C005204802D501F0B0FD01E050
:1049B00001F0ABFD1E200021FDF71FFF28684FF41A
:1049C00000610005184802D501F0A1FD01E001F0E9
:1049D0009CFD1E200021FDF710FF28684FF4804148
:1049E0004004114802D501F092FD01E001F08DFD77
:1049F0001E200021FDF701FF7169304689074FF045
:104A0000020102D501F083FD01E001F07EFD1E20D0
:104A10000021FDF7F2FE641CA4B2022CFFF431AEBB
:104A2000BDE8F05FE8E40000001C0240FE48808A18
:104A300040F29F114843FD4901EB8000FFF768BA3F
:104A40000288491E521C92B28A4200D9002202609A
:104A5000FFF725B90288521E92B28A4201D9491E37
:104A60008AB20260FFF71BB9EF4A30B4D18806233F
:104A7000491E91FBF3F49088401E80B2844202DA12
:104A800091FBF3F080B2908030BCFFF708B9E649A3
:104A90000623CA888888521E92FBF3F2401C80B21B
:104AA000824200DA00208880FFF7F9B8DE490888E2
:104AB000401E80B2042800D904200880FFF7EFB818
:104AC000D9490888401C80B2042800D900200880F9
:104AD000FFF7E5B810B5016839B100210160FFF7B3
:104AE000A5FFBDE81040FFF7DAB80121F6E72DE990
:104AF000F0411E4617460C460546FDF75EFB014693
:104B0000CB4ACC48FDF7A8FCCA4801884088A94296
:104B10000AD3EA198A4207D3A04205D3A1198142D8
:104B200002D30120BDE8F0810020FBE72DE9F04130
:104B30001D4616460F468046FFF7D9FF0028F1D0E4
:104B4000002414200021FDF758FE641CA4B22B465B
:104B5000324639464046FFF7CAFF0028F0D10A2CFA
:104B6000EFD90120DEE7B04A10B5918801EB410191
:104B700000EB4100D18880B2814200D990820020B0
:104B80009061D061FFF752FFBDE81040FFF787B892
:104B900030B4B0F8202393B20CE000EB03125B1E9C
:104BA00052F8104D9BB2146154685461946894613A
:104BB000D468D4610A689A42EFD3D0F82023521CFB
:104BC000C0F820230868401C086030BC2EE730B4D1
:104BD000D0F82023022A1DD30A8893B20BE000EB01
:104BE00003125B1C146914605469546094699460E6
:104BF000D469D4609BB2D0F820239A42EFD8D0F881
:104C00002023521EC0F82023086808B1401E086007
:104C100030BC0BE730BC704770B5012000F058FF86
:104C200010B1BDE870401FE7802000F051FF10B1C7
:104C3000BDE870402BE7022000F04AFF08B10020D9
:104C40001CE0042000F044FF08B1012016E0082019
:104C500000F03EFF08B1022010E0102000F038FF05
:104C600008B103200AE0202000F032FF08B1042040
:104C700004E0402000F02CFF18B10520BDE8704092
:104C800071E74FF4007000F023FF674C674D40B1AF
:104C9000A08A40F29F11484305EB800000F54A705E
:104CA00048E04FF40066304600F012FF40B1A08AA1
:104CB00040F29F11484305EB800000F5CB6039E0DE
:104CC0004FF4005000F004FF40B1A08A40F29F1161
:104CD000484305EB800000F54B702BE04FF400409B
:104CE00000F0F6FE40B1A08A40F29F11484305EB68
:104CF000800000F25C601DE04FF4807000F0E8FE80
:104D000008B14D4816E04FF4806000F0E1FE10B1AC
:104D1000494808300EE04FF4805000F0D9FE10B141
:104D20004548001D06E04FF4804000F0D1FE20B160
:104D300041480C30BDE87040CCE6304600F0E6FE5D
:104D400000280AD03D48FDF7EFFB3B490120083918
:104D50000860BDE87040FEF7A2BF70BD2DE9F047C6
:104D6000FFF75AFF142350220021F520FFF7DEFE43
:104D700008B1FFF779FE00242525C4EB041005EBEC
:104D8000400081B214235022F020FFF7CFFE10B173
:104D9000E0B2FFF7E8FE641CA4B2062CEDD31423A6
:104DA0005022D721F520FFF7C1FE08B1FFF76FFEB3
:104DB00014233C2215213320FFF7B8FE0026DFF82C
:104DC0008080194D194C01274FF4FA69D0B1288819
:104DD00040F29F110028A88A00FB01F0A96904EBAA
:104DE000800000EB01107DD00830A86285F82560B6
:104DF000C5E90B6885F82470FEF751FF484600218D
:104E0000FDF7FBFC14233C222A213320FFF78EFE02
:104E100050B3288840F29F110028A88A00FB01F0B7
:104E200004EB8000E9690DE0D0EF00209400002041
:104E3000500000201400002040C300201CC30020AC
:104E40008096980000EB01107ED000F54E70A862AD
:104E500085F82560C5E90B6885F82470FEF71FFF0B
:104E600048460021FDF7C9FC14233C22152170207F
:104E7000FFF75CFEB0B1A88A40F29F114843A969D0
:104E800004EB800000EB01100C30A86285F825606F
:104E9000C5E90B6885F82470FEF701FF484600213C
:104EA000FDF7ABFC14233C222A217020FFF73EFEC5
:104EB000B8B1A88A40F29F114843E96904EB800029
:104EC00000EB011000F54F70A86285F82560C5E978
:104ED0000B6885F82470FEF7E2FE48460021FDF7D6
:104EE0008CFC00E07AE114233C221521AD20FFF771
:104EF0001DFEB0B1A88A40F29F114843A96904EB96
:104F0000800000EB01101030A86285F82570C5E91B
:104F10000B6885F82470FEF7C2FE48460021FDF7B5
:104F20006CFC14233C222A21AD20FFF7FFFDC8B101
:104F3000A88A40F29F114843E96904EB800000EB26
:104F4000011000F5507000E04AE1A86285F8257074
:104F5000C5E90B6885F82470FEF7A1FE48460021DC
:104F6000FDF74BFC14233C225B213320FFF7DEFDD1
:104F7000A0B1A88A40F29F11484304EB800000F5DD
:104F80004C70A86285F82560C5E90B6885F8247027
:104F9000FEF785FE48460021FDF72FFC14233C2236
:104FA00070213320FFF7C2FDA0B1A88A40F29F1103
:104FB000484304EB800000F5CC60A86285F82560CA
:104FC000C5E90B6885F82470FEF769FE48460021A4
:104FD000FDF713FC14233C22BE215B20FFF7A6FD46
:104FE000A0B1A88A40F29F11484304EB800000F270
:104FF0006460A86285F82560C5E90B7885F824709F
:10500000FEF74DFE48460021FDF7F7FB14233C2236
:105010005B217020FFF78AFD68B1288840F29F115C
:105020000028A88A00FB01F004EB80007ED000F588
:105030004B70FFF74FFD702114233C220846FFF709
:1050400075FD68B1288840F29F110028A88A00FBEE
:1050500001F004EB80006AD000F25C60FFF73AFDDB
:1050600014233C225B21AD20FFF760FD30B128887E
:105070000028FE487DD00C30FFF72CFD14233C2285
:105080007021AD20FFF752FD30B128880028F74885
:1050900070D01430FFF71EFD14231A468C213320E4
:1050A000FFF744FDF24F50B1A88A40F29F114843E8
:1050B00004EB8000D0F824133846FFF7CBFC142310
:1050C0001A468C21AB20FFF731FD50B1A88A40F27F
:1050D0009F11484304EB8000D0F824133846FFF7B3
:1050E000AFFC14231A46A1213320FFF71FFDE04E29
:1050F000361D50B1A88A40F29F11484304EB80004E
:10510000D0F854163046FFF7A5FC14231A46A12107
:10511000AB20FFF70BFD68B1A88A40F29F1148430E
:1051200004EB8000D0F85416304601E05BE05DE00F
:10513000FFF786FC14231A468C21C020FFF7F6FCEB
:1051400058B1A88A40F29F11484304EB80003946C9
:10515000001DFFF71DFDFEF7A2FD14231A468C214A
:10516000D520FFF7E3FC70B1A88A40F29F114843B5
:1051700001E03EE03FE004EB80003946001DFFF710
:1051800026FDFEF78CFD14231A46A121C020FFF74F
:10519000CDFC60B1A88A40F29F11484304EB800027
:1051A000314600F54D70FFF7F3FCFEF778FD142350
:1051B0001A46A121D520FFF7B9FC00281DD0A88AE6
:1051C00040F29F11484304EB8000314600F54D70DA
:1051D000FFF7FDFCBDE8F047FEF761BD001D04E6EA
:1051E00000F54D7033E600F54A7022E700F5CB601C
:1051F00034E7083040E710304CE7BDE8F08710B5E1
:1052000014232822DC216420FFF790FC20B1002029
:10521000FCF7A8FCFEF743FD14231A46DC218C2082
:10522000FFF784FC924C183C10B14FF47840208476
:1052300014231A46DC21A020FFF778FC10B14FF6AA
:10524000E050208414231A46DC21B420FFF76EFCC2
:1052500010B14FF6E070208414231A46DC21C820D8
:10526000FFF764FC10B14FF4FC6020841423DC21B0
:105270001A460846FFF75AFC08B11F202084142361
:105280001A46DC21F020FFF751FC10B14FF61F0049
:10529000208414231A46DC214FF48270FFF746FC69
:1052A00010B147F6FF70208414231A46DC214FF416
:1052B0008C70FFF73BFC10B14FF6FF702084142375
:1052C0001A46DC214FF49670FFF730FC002801D01D
:1052D0000020208410BD30B4654D0023183DAA6A1B
:1052E00011680818296B43EB03040D1AA34100DA77
:1052F0000846106030BCFEF742BA30B45C4D002363
:10530000183DAA6A1168081AE96A63EB0304451A92
:105310009C4100DA0846106030BCFEF730BA1E230C
:1053200010B51A4619464FF48270FFF7FFFB504C38
:10533000183C40B1002084F82400FCF713FCFEF771
:10534000AEFCFFF773FB23221E2377211046FFF7E5
:10535000EDFB10B10120FFF7BEFF23221E23AB217E
:105360001046FFF7E3FB10B10120FFF7C6FF1E2335
:10537000232277214720FFF7D9FB10B10A20FFF73E
:10538000AAFF1E232322AB214720FFF7CFFB10B13A
:105390000A20FFF7B2FF1E23232277216B20FFF79D
:1053A000C5FB10B16420FFF796FF1E232322AB211B
:1053B0006B20FFF7BBFB10B16420FFF79EFF94F852
:1053C0002500002860D11E23232277218F20FFF79C
:1053D000ADFB4FF47A7410B12046FFF77CFF1E231B
:1053E0002322AB218F20FFF7A1FB10B12046FFF74E
:1053F00084FF1E2323227721B320FFF797FB42F27D
:10540000107410B12046FFF766FF1E232322AB2144
:10541000B320FFF78BFB10B12046FFF76EFF1E2372
:1054200023227721D720FFF781FB124C10B12046B1
:10543000FFF751FF1E232322AB21D720FFF776FB76
:1054400010B12046FFF759FF1E2323227721FB20AE
:10545000FFF76CFB084C10B12046FFF73CFF1E2302
:105460002322AB21FB20FFF761FB07E038C30020BC
:10547000E8EF0020A086010040420F00002803D082
:105480002046BDE8104038E710BDAA4810B5808A14
:1054900040F29F114843A84901EB800404F269647B
:1054A000204601F0A5FC401E01B2002901DB0020CE
:1054B000605410BD70B505469E4840F29F11808A29
:1054C00048439D4901EB800404F26964204601F0E1
:1054D0008FFC092807D822462B46BDE8704097A1CB
:1054E000104601F05DBF70BD2DE9F0410025924EE0
:1054F000284640F29F11414306EB8101096829B11A
:105500006D1C401C80B2ADB21E28F2D3022D1DD3FB
:10551000884F40F27C68BC8A0BE040F29F106043E9
:1055200006EB800000F27C61424601F03DFC641C09
:10553000A4B2AC42F1D3B88A00B1401EB882F88858
:10554000401EF880BDE8F041FFF770BABDE8F08179
:105550002DE9F0410024784D204640F29F1141434F
:1055600005EB8101096829B1641C401C80B2A4B21A
:105570001E28F2D31D2CE9D86E4E40F27C670CE059
:1055800040F29F1104FB01F005EB8000A0F27C616A
:105590003A4601F009FC641EA4B2B08AA042EFD3DF
:1055A00080B21E2801D91E2000E0401CB082F08885
:1055B00040F29F11401CF080B08A62A2484305EB84
:1055C000800063A100F2696001F0EAFEBDE8F041ED
:1055D000FFF72CBABAE7FEB5142364220021DC20C1
:1055E000FFF7A4FA18B1FFF77FFFFEF758FB14236B
:1055F0006E2219210020FFF799FA18B1FFF7A8FFD2
:10560000FEF74DFB20208DF8000000208DF80100F2
:105610000546C5EBC500002400EB400635369DF875
:1056200000007F2810D2C4EBC40000EB40000F3014
:105630001423B1B280B21A46FFF778FA20B1684657
:10564000FFF738FFFEF72BFB9DF80000641C401CA1
:10565000A4B28DF800000E2CE1D36D1CADB2072D65
:10566000D7D314233E22B321F620FFF75FFA18B1F7
:10567000FFF70BFFFEF713FB14233C22DC21A020D5
:10568000FFF754FA00280ED0324901200860FEF7D7
:10569000F1FA4FF47A600021FDF7AFF80020FCF733
:1056A00061FAFEF7FCFAFEBD224810B590F824100E
:1056B000E1B1FFF734FE14231A46DC210020FFF786
:1056C00035FA20B10020FCF74DFAFFF7EFF914236B
:1056D0001A46DC215020FFF729FA002828D00020A4
:1056E000FCF740FABDE81040FFF7EAB9008805284A
:1056F000E1D2DFE800F0030306091A00FFF72EFBF2
:10570000D9E7FFF77CFDD6E732216423DC22084687
:10571000FFF70CFA0028CED00F48FCF705FF0D4923
:1057200001200860FEF7BBFAC5E7FFF754FFC2E7A8
:1057300010BD0000D0EF00209400002025732573D9
:10574000000000004E65772050726F670000000077
:105750002573000038C300201CC300202DE9FC4144
:10576000BA4F07220221384600F0DEFE072203214D
:10577000384600F0D9FE02208DF8040003260C21E3
:105780008DF80560002400918DF806408DF80740E3
:105790006946384600F054FE01258DF804508DF816
:1057A000056028028DF8064000908DF80740694694
:1057B000384600F045FEA649A4200880091D42F2A3
:1057C0002C000880A2480C30018841F08001018043
:1057D0000821262000F029F9262000F01BF99C4919
:1057E0009C48091F40F8A81F9B49416006211120D1
:1057F00000F01BF9112000F00DF99848A82606804A
:105800009648283805802027001D078093481C38BB
:1058100005800621372000F008F9372000F0FAF85B
:105820008F4806850580878085810821362000F015
:10583000FCF8362000F0EEF88A48C0F8000DA0F819
:10584000044D89A001F09CFDBDE8FC8110B5044623
:105850004FF480717D4800F058FE7E48C0F8A440A7
:105860008649C0F8A01010BD7A48C16841F474118F
:10587000C1607B484FF6F7014162012101808181BF
:1058800070477748002101820180818181156F482E
:1058900000F03DBE6E48001F01887248D0F8002D10
:1058A0001170D0F8001D491CC0F8001DB0F8041D8F
:1058B000491C89B2A0F8041DB1F5D06F04D90021AC
:1058C000A0F8041DC0F8000D64494FF69B70091F35
:1058D0000860624901202839088060491C39088025
:1058E00070475E490020183908805C4928390880D3
:1058F0005A491C3908805B49012081F8060D704720
:10590000034610B50020024604E09C5C521C204473
:10591000C0B292B28A42F8D310BD10B5514C40F2D9
:105920009F11207884F88006607884F88106A0783A
:1059300084F8820610FB01F0514940F27C6201EBD1
:10594000800104F28460A1F27C6101F02DFA40F242
:105950007F614148FFF7D4FF84F88306BDE810401B
:105960004FF4D06072E770B53E4C94F8060D0028F5
:105970004FD0002084F8060DB4F8041DA4F8040DDF
:10598000C4F8004DE578E0702046FFF7B9FFA84263
:105990003FD1207810283CD1A078002839D01E288B
:1059A00037D86278072A13D00D2A32D140F29F11DE
:1059B00010FB01F0324940F27C6201EB8000211DB6
:1059C000A0F27C6001F0F0F9A0781D2803D00CE073
:1059D000BDE87040A1E72B4901200860FDF72EF9D2
:1059E000FEF75DF92648FEF793FA207884F88006E2
:1059F000607884F88106A07884F882064FF4D0613C
:105A00001548FFF77DFF84F88306BDE87040042049
:105A10001CE770BD00F01F02012191404009800089
:105A200000F1E020C0F8001170470907090E0028B6
:105A300006DA00F00F0000F1E02080F8141D704736
:105A400000F1E02080F800147047000000000240E0
:105A5000084400400060024048E90020281400404B
:105A600000100040C8E20020557064617465204950
:105A70006E6974204F6B210A000000005104000879
:105A80009400002038C300201CB500208DF80400CD
:105A900001208DF8060003218DF805108DF8070010
:105AA0004FF6FF7000906946234800F0C9FC4FF4A0
:105AB000006000906946214800F0C2FC1CBD1E49F0
:105AC00010310968014201D0002070470120704761
:105AD00070B50546FFF7F3FF00280ED00024142010
