:020000040800F2
:1000000088040020C9240008D1240008D324000853
:10001000D5240008D7240008D924000800000000D7
:10002000000000000000000000000000DB240008C9
:10003000DD24000800000000DF240008E12400089F
:10004000E3240008E3240008E3240008E324000874
:10005000E3240008E3240008E3240008E324000864
:10006000E3240008E3240008E3240008E324000854
:10007000E3240008E3240008E3240008E324000844
:10008000E3240008E3240008E3240008E324000834
:10009000E3240008E3240008E3240008E324000824
:1000A000E3240008E3240008E3240008E324000814
:1000B000E3240008E3240008E3240008E324000804
:1000C000E3240008E3240008E3240008E3240008F4
:1000D000E32400085B240008E3240008E32400086C
:1000E000E3240008E3240008E3240008E3240008D4
:1000F000E3240008E3240008E3240008E3240008C4
:10010000E3240008E3240008E3240008E3240008B3
:10011000E3240008E3240008E3240008E3240008A3
:10012000E3240008E3240008E3240008E324000893
:10013000E3240008E3240008E3240008E324000883
:10014000E3240008E3240008E3240008E324000873
:10015000E3240008E3240008E3240008E324000863
:10016000E3240008E3240008E3240008E324000853
:10017000E3240008E3240008E3240008E324000843
:10018000E3240008E3240008DFF80CD003F0B6FBFA
:1001900000480047A70100088804002000E0401E36
:1001A0000028FCD1704701F065FD00F0C4F81F2065
:1001B00001F0F3FB02F088F8064C01F0F3FE014673
:1001C000054A044802F02DF86188208801F04EFEAF
:1001D000F3E7000014000020400000201CB50121BE
:1001E000582002F0D9FD0121084602F0E9FDFE4C3D
:1001F0000C220021204602F08BFC0C22012120461B
:1002000002F086FC0C220421204602F081FC0C2224
:100210000521204602F07CFC0C220821204602F039
:1002200077FC0C220921204602F072FC0C220A21E4
:10023000204602F06DFC0C220E21204602F068FCE4
:100240000C220F21204602F063FC02218DF80410DD
:100250008DF8051000214CF233708DF806100090D7
:100260008DF807106946204602F0DEFBDF4C0C22B9
:100270000221204602F04CFC0C220721204602F00D
:1002800047FC0C220821204602F042FC0C220921E6
:10029000204602F03DFC0C220A21204602F038FCE8
:1002A0000C220B21204602F033FC0C221146204682
:1002B00002F02EFC0C220D21204602F029FC0C221B
:1002C0000E21204602F024FC0C220F21204602F0D1
:1002D0001FFC4FF6847100916946204602F0A4FB92
:1002E000C34C0C220521204602F012FC0C221146C0
:1002F000204602F00DFC0C220D21204602F008FCE5
:100300000C220E21204602F003FC47F2200100914E
:100310006946204602F088FB1CBD002240F275436E
:1003200006E00021491C89B29942FBD3521C92B2CB
:100330008242F6D370472DE9F05FAE4CFFF74EFFD7
:10034000641EFDD201F061FC4FF49670FFF7E5FFEB
:100350004FF0DA42A84900201080A84B18880C46BC
:10036000A0F5134C60804FF480754FF4E06B41F2C0
:10037000180740F2272840F207744FF4007940F242
:100380003F16BCF1250C7DD0A0F5104CBCF54A7C85
:10039000F9D0A0F5004CBCF5995C74D0B0F5134FC2
:1003A000FBD0A0F5134C4FF40177BCF1310C6BD0AE
:1003B000A0F5194C40F20559BCF1190C65D0A0F517
:1003C000A85CBCF1050C01D048457CD1092008701F
:1003D0000021072003F0A4FA3220FFF79EFF4FF41C
:1003E0008E71122003F09CFA0121A42003F098FAE8
:1003F0000F21082003F094FA08210A2003F090FA54
:1004000008210D2003F08CFA2146302003F088FAF1
:100410000721312003F084FA40F20361322003F017
:100420007FFA5F465946332003F07AFA40F2022100
:10043000342003F075FA0221352003F071FA41F6F9
:100440000F71362003F06CFA2146372003F068FA6A
:100450000021382003F064FA0021392003F060FA0B
:1004600021463A2003F05CFA00213B2003F058FAC1
:1004700007213C2003F054FA00213D2003F050FAFC
:10048000322003E0BCE079E293E11BE3FFF745FF94
:100490000121072003F044FA0121172003F040FA5C
:1004A0003220FFF73AFF4FF4BD51102003F038FA25
:1004B00040F21721112003F033FA4FF48F7112200C
:1004C00003F02EFA00E083E34FF47061132003F091
:1004D00027FA00212A2003F023FA0A21292003F019
:1004E0001FFA4FF49F71122003F01AFA00215020D6
:1004F00003F016FAEF21512003F012FA00215220E6
:1005000003F00EFA3146532003F00AFA4FF41C515F
:10051000602003F005FA0121612003F001FA0021B7
:100520006A2003F0FDF90021802003F0F9F9002191
:10053000812003F0F5F90021822003F0F1F9002178
:10054000832003F0EDF90021842003F0E9F9002174
:10055000852003F0E5F91321902003F0E1F94FF431
:100560004071922003F0DCF90521932003F0D8F9C3
:100570000021952003F0D4F90021972003F0D0F951
:100580000021982003F0CCF92946012003F0C8F996
:100590003946022003F0C4F941F23001032003F090
:1005A000BFF90021042003F0BBF900210C2003F067
:1005B000B7F900210F2003F0B3F90021202003F048
:1005C000AFF90021212003F0ABF92121072003F02E
:1005D000A7F9C820FFF7A1FE6121072003F0A0F9C9
:1005E000C820FFF79AFEFCE3000C02400010024016
:1005F00000180240FFFF1F00000000200000016DF6
:100600000120087047F6F001E52003F089F929463A
:10061000012003F085F95946022003F081F939469B
:10062000032003F07DF90021042003F079F940F262
:100630000721082003F074F90021092003F070F964
:1006400000210A2003F06CF900210C2003F068F966
:1006500000210D2003F064F900210F2003F060F960
:100660000021102003F05CF90721112003F058F954
:100670000021122003F054F90021132003F050F957
:100680000121072003F04CF9C820FFF746FE41F294
:100690009001102003F044F94146112003F040F985
:1006A0003220FFF73AFE1F21122003F039F93220E1
:1006B000FFF733FE4FF4A851132003F031F927213F
:1006C000292003F02DF90D212B2003F029F93220E8
:1006D000FFF723FE0021202003F022F90021212032
:1006E00003F01EF90021302003F01AF921463120D1
:1006F00003F016F940F20731322003F011F94946B0
:10070000352003F00DF90821362003F009F9042102
:10071000372003F005F90021382003F001F92146C4
:10072000392003F0FDF802213C2003F0F9F841F6EE
:1007300004513D2003F0F4F80021502003F0F0F8BC
:10074000EF21512003F0ECF80021522003F0E8F8EB
:100750003146532003F0E4F84FF42741602003F0C2
:10076000DFF80121612003F0DBF800216A2003F0AB
:10077000D7F80021802003F0D3F80021812003F076
:10078000CFF80021822003F0CBF80021832003F072
:10079000C7F80021842003F0C3F80021852003F06E
:1007A000BFF81021902003F0BBF84FF4C0619220F5
:1007B000FEE30320087041F21401E72003F0B0F8D3
:1007C0002946012003F0ACF84946022003F0A8F8BE
:1007D00041F23001032003F0A3F840F20221082087
:1007E00003F09EF80021092003F09AF800210A2066
:1007F00003F096F800210C2003F092F800210D2060
:1008000003F08EF800210F2003F08AF80021102059
:1008100003F086F80721112003F082F8002112204E
:1008200003F07EF80021132003F07AF8C820FFF7C8
:1008300074FD41F29061102003F072F841461120DE
:1008400003F06EF83220FFF768FD0C21122003F050
:1008500067F83220FFF761FD4FF40061132003F0C9
:100860005FF81121292003F05BF80B212B2003F006
:1008700057F83220FFF751FD0021202003F050F8F7
:100880000021212003F04CF80021302003F048F82B
:100890004FF483752946312003F042F800213220BD
:1008A00003F03EF83946352003F03AF841F20A6188
:1008B000362003F035F82146372003F031F8294679
:1008C000382003F02DF82146392003F029F840F2B2
:1008D00002413C2003F024F840F60F413D2003F094
:1008E0001FF80021502003F01BF8EF21512003F0E6
:1008F00017F80021522003F013F83146532003F07B
:100900000FF84FF41C51602003F00AF80121612018
:1009100003F006F800216A2003F002F8002180208D
:1009200002F0FEFF0021812002F0FAFF0021822068
:1009300002F0F6FF0021832002F0F2FF0021842064
:1009400002F0EEFF0021852002F0EAFF1021902046
:1009500002F0E6FF4FF4C061922002F0E1FF212196
:10096000072002F0DDFF3220FFF7D7FC61210720CE
:1009700002F0D6FF3220FFF7D0FCFDE30020087024
:10098000014602F0CDFF2946012002F0C9FF594679
:10099000022002F0C5FF3946032002F0C1FF00210A
:1009A000042002F0BDFF40F20221082002F0B8FF4F
:1009B0000021092002F0B4FF00210A2002F0B0FF5C
:1009C00001210C2002F0ACFF00210D2002F0A8FF55
:1009D00000210F2002F0A4FF6420FFF79EFC40F2EC
:1009E0000111072002F09CFF6420FFF796FC4FF4F2
:1009F0008651102002F094FF0721112002F090FF91
:100A00004FF488742146122002F08AFF4FF43061BF
:100A1000132002F085FF0021292002F081FF44F21B
:100A200010012B2002F07CFF0021502002F078FF03
:100A3000EF21512002F074FF0021522002F070FFDC
:100A40003146532002F06CFF4FF41C51602002F03D
:100A500067FF0121612002F063FF00216A2002F09C
:100A60005FFF0021802002F05BFF0021812002F067
:100A700057FF0021822002F053FF0021832002F063
:100A80004FFF0021842002F04BFF0021852002F05F
:100A900047FF1021902002F043FF0021922002F036
:100AA0003FFF0121932002F03BFF2146952002F0F9
:100AB00037FF0021972002F033FF0021982043E305
:100AC0000720EDE30D2008700621282002F028FF02
:100AD0000121002002F024FF0021102002F020FF5D
:100AE00047F2EF21012002F01BFF4FF4C06102200A
:100AF00002F016FF46F63821032002F011FF46F6F9
:100B00007401112002F00CFF00210F2002F008FFF9
:100B100045F208310B2002F003FF03210C2002F004
:100B2000FFFE0A210D2002F0FBFE4FF438510E208B
:100B300002F0F6FEBE211E2002F0F2FE4FF400414C
:100B4000252002F0EDFE4FF4F041262002F0E8FEF1
:100B50007821272002F0E4FE00214E2002F0E0FE82
:100B600000214F2002F0DCFE40F6D901122002F0F5
:100B7000D7FE0021302002F0D3FE4FF482713120E5
:100B800002F0CEFE2946322002F0CAFE40F20535C0
:100B90002946332002F0C4FE4946342002F0C0FE4C
:100BA0002946352002F0BCFE2146362002F0B8FE70
:100BB000691F372002F0B4FE4FF490513A2002F042
:100BC000AFFE4FF400613B2002F0AAFE332177E72D
:100BD000A0F5094C40F2025A40F20238BCF1890CEF
:100BE0001DD0A0F5094CBCF1990C7DD0A0F5A8470B
:100BF000083F7AD0A0F58A47313F77D0A0F58A47E1
:100C0000353F74D0472873D0A0F5EE47833F70D0AE
:100C1000672010801888488047286BD0FEE30520A5
:100C200008700121002002F07BFE3220FFF775FBE7
:100C30004AF6A401032002F073FE3220FFF76DFB99
:100C400000210C2002F06CFE3220FFF766FB40F61C
:100C50000C010D2002F064FE3220FFF75EFB4FF422
:100C60002C510E2002F05CFE3220FFF756FBB02123
:100C70001E2002F055FE3220FFF74FFB42F63F31B7
:100C8000012002F04DFE3220FFF747FB4FF4C06118
:100C9000022002F045FE3220FFF73FFB002110202A
:100CA00002F03EFE3220FFF738FB46F270011120C1
:100CB00002F036FE3220FFF730FB0021052002F063
:100CC0002FFE3220FFF729FB0021062002F028FE2C
:100CD0003220FFF722FB4EF61C71162002F020FE98
:100CE0003220FFF71AFB06E0CFE08FE131E2D8E2D5
:100CF000FDE37DE3FCE30321172002F011FE322027
:100D0000FFF70BFB40F23311072002F009FE3220FF
:100D1000FFF703FB00210B2002F002FE3220FFF759
:100D2000FCFA00210F2002F0FBFD3220FFF7F5FA5C
:100D30000021412002F0F4FD3220FFF7EEFA0021FD
:100D4000422002F0EDFD3220FFF7E7FA00214820B3
:100D500002F0E6FD3220FFF7E0FA3146492002F0CA
:100D6000DFFD3220FFF7D9FA00214A2002F0D8FD3A
:100D70003220FFF7D2FA00214B2002F0D1FD3220C1
:100D8000FFF7CBFA4FF46F41442002F0C9FD322047
:100D9000FFF7C3FA0021452002F0C2FD3220FFF721
:100DA000BCFA3146462002F0BBFD3220FFF7B5FA0F
:100DB0002146302002F0B4FD3220FFF7AEFA39466A
:100DC000312002F0ADFD3220FFF7A7FA394632207C
:100DD00002F0A6FD3220FFF7A0FA54465146332018
:100DE00000E0B3E102F09CFD3220FFF796FA40F2FA
:100DF0000751342002F094FD3220FFF78EFA394675
:100E0000352002F08DFD3220FFF787FA3946362073
:100E100002F086FD3220FFF780FA2146372002F0EB
:100E20007FFD3220FFF779FA444641463A2002F02E
:100E300077FD3220FFF771FA21463B2002F070FD6A
:100E40003220FFF76AFA0021232002F069FD3220E8
:100E5000FFF763FA0021242002F062FD3220FFF741
:100E60005CFA4FF40041252002F05AFD3220FFF7D2
:100E700054FA00214F2002F053FD00214E2002F0D1
:100E80004FFD46F2580111201BE604200870062190
:100E9000282002F045FD0121002002F041FD4AF624
:100EA000A461032002F03CFD04210C2002F038FD77
:100EB0000C210D2002F034FD4FF420510E2002F0E1
:100EC0002FFDB5211E2002F02BFD43F63F310120FE
:100ED00002F026FD4FF4C061022002F021FD002146
:100EE000102002F01DFD46F63001112002F018FD21
:100EF0000021052002F014FD0021062002F010FD63
:100F00004EF61C71162002F00BFD3321072002F073
:100F100007FD00210B2002F003FD00210F2002F04D
:100F2000FFFC0021412002F0FBFC0021422002F0E6
:100F3000F7FC0021482002F0F3FC3146492002F082
:100F4000EFFC00214A2002F0EBFC00214B2002F0D4
:100F5000E7FC4FF46F41442002F0E2FC0021452001
:100F600002F0DEFC3146462002F0DAFC00214E2081
:100F700002F0D6FC00214F2002F0D2FC21463020A6
:100F800002F0CEFC40F20221312002F0C9FC3946C9
:100F9000322002F0C5FC54465146332002F0C0FC1A
:100FA00040F20751342002F0BBFC3946352000E006
:100FB0001DE202F0B5FC3946362002F0B1FC2146B4
:100FC000372002F0ADFC444641463A2002F0A8FC2E
:100FD00021463B2002F0A4FC0021232002F0A0FCCB
:100FE0000021242002F09CFC4FF40041252002F057
:100FF00097FC4FF4E041262002F092FC4BF2EB010B
:10100000202002F08DFC7C2127205AE50820087062
:101010002946012002F084FC5946022002F080FC9F
:1010200041F23001032002F07BFC0021042002F099
:1010300077FC40F20721082002F072FC0021092011
:1010400002F06EFC00210A2002F06AFC00210C2054
:1010500002F066FC00210D2002F062FC00210F204E
:1010600002F05EFC3220FFF758F940F20111072030
:1010700002F056FC3220FFF750F941F2B061102027
:1010800002F04EFC0121112002F04AFC0121172040
:1010900002F046FC4FF49C71122002F041FC4FF428
:1010A0000061132002F03CFC0921292002F038FCE9
:1010B00009212A2002F034FC0021A42002F030FC97
:1010C0000021502002F02CFCEF21512002F028FCDE
:1010D0000021522002F024FC3146532002F020FC73
:1010E0004FF41C51602002F01BFC0321612002F030
:1010F00017FC00216A2002F013FC0021802002F07E
:101100000FFC0021812002F00BFC0021822002F064
:1011100007FC0021832002F003FC0021842002F060
:10112000FFFB0021852002F0FBFB1321902002F041
:10113000F7FB0021922002F0F3FB0321932002F041
:10114000EFFB4FF48871952002F0EAFB40F2731137
:10115000B6E4072008700121002002F0E1FB4FF403
:10116000C561102002F0DCFB0621122002F0D8FB42
:1011700040F63221132000E0EDE102F0D1FB4021E6
:10118000112002F0CDFB5021152002F0C9FB1621E1
:10119000122002F0C5FB3220FFF7BFF845F2606174
:1011A000102002F0BDFB3220FFF7B7F842F64E21C7
:1011B000132002F0B5FB2946012002F0B1FB4FF4E9
:1011C0004071022002F0ACFB41F23001032002F03A
:1011D000A7FB40F20221082002F0A2FB00210A2016
:1011E00002F09EFB0021302002F09AFB40F2024107
:1011F000312002F095FB4FF48371322002F090FB16
:101200005946332002F08CFB4FF48271342002F0F7
:1012100087FB40F20131352002F082FB2146362067
:1012200002F07EFB40F20531372002F079FB4FF4EB
:101230000271382002F074FB40F60B71392002F085
:101240006FFB3220FFF769F80221412002F068FBB2
:101250004FF41C51602002F063FB0121612002F079
:101260005FFB40F21911902002F05AFB4FF4857198
:10127000922002F055FB0421932002F051FB2946F5
:10128000A02002F04DFB3220FFF747F840F2331167
:10129000072002F045FB3220FFF73FF80021A02095
:1012A00056E30C2008703021152002F039FB102184
:1012B0009A2002F035FB2021112002F031FB43F28D
:1012C0002841102002F02CFB0221122002F028FB02
:1012D00041F23801132002F023FB2820FFF71DF80C
:1012E0001221084602F01CFB2820FFF716F843F2F3
:1012F0002041102002F014FB43F24501132002F0BC
:101300000FFB4620FFF709F80021302002F008FB10
:1013100040F20241312002F003FB40F2073132205B
:1013200002F0FEFA4FF44171332002F0F9FA042181
:10133000342002F0F5FA40F20141352002F0F0FAD3
:101340002146362002F0ECFA40F20531372002F057
:10135000E7FA4FF4C2642146382002F0E1FA214650
:10136000392002F0DDFA2946012002F0D9FA4FF4C3
:101370004071022002F0D4FA41F23001032002F061
:10138000CFFA40F60801082002F0CAFA08210A2024
:1013900002F0C6FA4FF41C51602002F0C1FA01219C
:1013A000612002F0BDFA4FF49F71902002F0B8FA6C
:1013B0002946922002F0B4FA2946932002F0B0FAAE
:1013C0004FF44051A02002F0ABFA1021A32002F00C
:1013D000A7FA0121072002F0A3FA2121072002F039
:1013E0009FFA2321072002F09BFA33210720B0E067
:1013F000062008700121FF2002F092FA0821F32054
:1014000002F08EFA2946012002F08AFA594602209B
:1014100002F086FA41F23001032000E09AE202F085
:101420007FFA4146082002F07BFA40F207210820AB
:1014300002F076FA0021092002F072FA00210A2057
:1014400002F06EFA0021102002F06AFA0521112044
:1014500002F066FA0021122002F062FA0021132045
:1014600002F05EFA3220FEF758FF41F2B021102060
:1014700002F056FA3220FEF750FF0721112002F049
:101480004FFA3220FEF749FF8B21122002F048FA72
:101490003220FEF742FF4FF4B851132002F040FA19
:1014A0003220FEF73AFF2221292002F039FA0021EA
:1014B000302002F035FA2146312002F031FA494657
:1014C000322002F02DFA40F20711352002F028FAFE
:1014D0000821362002F024FA0021372002F020FAF9
:1014E00040F202242146382002F01AFA01E035E0E9
:1014F00014E14FF48371392002F012FA21463C20A6
:1015000002F00EFA4FF481613D2002F009FA322018
:10151000FEF703FF0021502002F002FAEF215120D4
:1015200002F0FEF90021522002F0FAF93146532070
:1015300002F0F6F94FF42741602002F0F1F90121A1
:10154000612002F0EDF93321902002F0E9F90B213E
:101550002B2002F0E5F940F23311F9E50A2008707A
:101560000021EA2002F0DCF92021EB2002F0D8F97A
:101570000C21EC2002F0D4F9C421ED2002F0D0F9C6
:101580004021E82002F0CCF93821E92002F0C8F926
:101590000121F12002F0C4F91021F22002F0C0F97B
:1015A000A321272002F0BCF90121402002F0B8F964
:1015B0000021412002F0B4F90021422002F0B0F9EC
:1015C0001021432002F0ACF90E21442002F0A8F9CA
:1015D0002421452002F0A4F90421462002F0A0F9BC
:1015E0005021472002F09CF90221482002F098F98E
:1015F0001321492002F094F919214A2002F090F9B0
:1016000019214B2002F08CF916214C2002F088F9A8
:101610001B21502002F084F93121512002F080F981
:101620002F21522002F07CF93F21532002F078F95B
:101630003F21542002F074F93E21552002F070F948
:101640002F21562002F06CF97B21572002F068F917
:101650000921582002F064F90621592002F060F9AE
:1016600006215A2002F05CF90C215B2002F058F9A7
:101670001D215C2002F054F9CC215D2002F050F9CC
:1016800018211B2002F04CF901211A2002F048F920
:101690001521242002F044F95021252002F040F9C0
:1016A0008B21232002F03CF93621182002F038F972
:1016B0000121192002F034F90021012002F030F953
:1016C00088211F2002F02CF93220FEF726FE80210F
:1016D0001F2002F025F93220FEF71FFE90211F2067
:1016E00002F01EF93220FEF718FED0211F2002F072
:1016F00017F93220FEF711FE0521172002F010F92C
:101700000021362002F00CF93821282002F008F9D7
:101710003220FEF702FE3C21282019E10B20087040
:101720000821422002F0FCF8B421462002F0F8F82B
:101730004321472002F0F4F81321482002F0F0F88A
:101740004721492002F0ECF814214A2002F0E8F881
:1017500036214B2002F0E4F803214C2002F0E0F89F
:1017600046214D2002F0DCF805214E2002F0D8F889
:1017700010214F2002F0D4F80821502002F0D0F8B8
:101780000A21512002F0CCF80021022002F0C8F812
:101790000021032002F0C4F80021042002F0C0F868
:1017A000EF21052002F0BCF80021062002F0B8F875
:1017B0000021072002F0B4F80121082002F0B0F85F
:1017C0003F21092002F0ACF80A20FEF7A6FD062111
:1017D000012002F0A5F8C821162002F0A1F89521F9
:1017E000232002F09DF89521242002F099F8FF2192
:1017F000252002F095F80221272002F091F802211D
:10180000282002F08DF80221292002F089F8022117
:101810002A2002F085F802212C2002F081F8022112
:101820002D2002F07DF801213A2002F079F8012103
:101830003B2002F075F8F0213C2002F071F8002105
:101840003D2002F06DF81420FEF767FD38213520A9
:1018500002F066F87821362002F062F838213E2046
:1018600002F05EF80F21402002F05AF8F0214120EA
:1018700002F056F80021382002F052F849211920D0
:1018800002F04EF80A21932002F04AF80A20FEF7EF
:1018900044FD2021084602F043F803211D2002F0F8
:1018A0003FF800211E2002F03BF809211F2002F022
:1018B00037F85321442002F033F81021452002F07C
:1018C0002FF80A20FEF729FD04211C2002F028F839
:1018D0001420FEF722FD8021432002F021F805208C
:1018E000FEF71BFD0A211B2002F01AF82820FEF744
:1018F00014FD12211B2002F013F82820FEF70DFD25
:101900007F21902002F00CF80421262002F008F834
:101910002820FEF702FD2421262002F001F82C21C8
:10192000262001F0FDFF2820FEF7F7FC082170209B
:1019300001F0F6FF3C21262001F0F2FF02215720A2
:1019400001F0EEFF0021552001F0EAFF00215720B1
:1019500001F0E6FFBDE8F05F3220FEF7DEBC10B517
:10196000A0F23F10404284B2BB48007805280BD05B
:10197000202001F0D5FF2146212001F0D1FF4FF0BA
:10198000DA412220088010BD4E2001F0C9FF214617
:10199000BDE810404F2001F0C3BF70B50546AE480A
:1019A000002400780A2811D00B280FD00021084607
:1019B000FFF7D5FF4FF0DA4122200880A7484FF407
:1019C00096310580641C8C42FBD370BD002102203F
:1019D00001F0A6FF0021032001F0A2FF0021042056
:1019E00001F09EFFEF21052001F09AFF0021062063
:1019F00001F096FF0021072001F092FF012108204D
:101A000001F08EFF3F21092001F08AFFD2E710B5D7
:101A1000FFF7A5FF4FF0DA41222008808E480178B9
:101A20008E48091F092917D2DFE801F005050505D1
:101A30001616080805000188008810BD0188C1F34A
:101A4000C70201880088C908C0F38700C90241EABB
:101A50004010104380B210BD01880088C0F34511CA
:101A6000C20AC00200EB41101044F3E710B514465F
:101A7000B0F5A07F09D2F02907D2FFF770FF214609
:101A8000BDE81040222001F04BBF10BD2DE9F0470A
:101A900005469146DDF820A098460C4610464D4577
:101AA00001D9A94685B21846444501D9884684B271
:101AB000A9EB0500A8EB040100B20EB250B1A6B12B
:101AC000B04230DDC0EB46010FB27100404201EB85
:101AD000400825E0524621462846FFF7C7FF641C10
:101AE000A4B2A045F6D2BDE8F0875246214628466A
:101AF000FFF7BCFF6D1CADB2A945F6D2F3E7524625
:101B000021462846FFF7B2FF6D1CADB2002F04DD61
:101B1000641CA4B208EB070001E007EB460007B223
:101B20004D45ECD11AE0C6EB40010FB271004042C6
:101B300001EB400910E0524621462846FFF796FF88
:101B4000641CA4B2002F04DD6D1CADB209EB0700CC
:101B500001E007EB460007B24445ECD1524621466E
:101B60002846BDE8F04781E72DE9FF5F8946074633
:101B70009B461146684600F073F80025EA460024AB
:101B80001AF8058009EB0506C4F1070128FA01F0EF
:101B9000C00707EB0400B1B280B201D05A4600E0A2
:101BA0000E9AFFF763FF641CA4B2082CECD36D1CE3
:101BB000ADB2102DE3D3BDE8FF9F2DE9F843994660
:101BC000089F16460D4604464FF49C7816F8012BE4
:101BD0004B46294620460097FFF7C6FF444502D2F0
:101BE0000834A4B207E0E02D4FF0000402D2103513
:101BF000ADB200E0002530780028E7D1BDE8F883D9
:101C00004FF0DA4122200880704700B597B00620D7
:101C1000009000201021CDE90201049009020190FA
:101C2000CDE90801069007900A900FA905900F22B0
:101C30000B90CDE90C01CDE90F20CDE911201390D7
:101C4000149015900E91684600F063FC0121062067
:101C500000F0F4FC17B000BD000000200000016D92
:101C6000034A02EB01111022A1F5007101F08ABBB9
:101C7000D23D00082DE9F04387B00121022001F098
:101C80008BF80121042001F087F84FF480480121EE
:101C9000404601F09FF8FF4F05220D21384600F025
:101CA00037FF05220E21384600F032FF05220F21B2
:101CB000384600F02DFF4FF40050009002208DF8C0
:101CC000040003268DF8056000248DF806400125E8
:101CD0008DF807506946384600F0A6FE694638463A
:101CE000CDF8008000F0A0FEE80300906946384679
:101CF00000F09AFE8DF8045010208DF80640DFF8B1
:101D0000989300908DF805608DF807506946484615
:101D100000F08AFE8DF804408DF8064020278DF8EB
:101D2000056000978DF807506946484600F07CFE34
:101D30001021484600F0DDFE0121404601F04AF83E
:101D4000D64D284601F0EEF8ADF808404FF4827009
:101D5000ADF80A00ADF810406815ADF81200072084
:101D6000ADF80C40ADF81470ADF81800ADF80E40A9
:101D7000ADF8164002A9284601F0F8F801212846DE
:101D800001F083F907B0BDE8F08370B5C34D0221BF
:101D9000284601F00DFA0028F9D00021284601F06C
:101DA000DAF90121284601F003FA0028F9D0284683
:101DB00001F0CFF94FF6FF7101EA0024012000F095
:101DC000C3FA0221284601F0F3F90028F9D00021D6
:101DD000284601F0C0F90121284601F0E9F9002860
:101DE000F9D0284601F0B5F90443C4F3CB0070BD27
:101DF00070B5A94C1021204600F07DFE012000F0B6
:101E0000A3FA902000F0ADFA012000F09DFAFFF750
:101E1000BCFF05461021204600F06BFE284670BD31
:101E200070B59D4C1021204600F065FE012000F0A9
:101E30008BFAD02000F095FA012000F085FAFFF728
:101E4000A4FF05461021204600F053FE284670BD31
:101E500070B50D460646FFF7CBFF0446012000F0A3
:101E600073FAFFF7DDFF3460286070BD2DE9F041A3
:101E70004FF478460F4605463246FFF7F7FD6C1CD7
:101E8000A0B232463946FFF7F1FD7F1CB9B23246A7
:101E90002846FFF7EBFDB9B2A0B23246BDE8F041EB
:101EA000FFF7E4BD2DE9FC5F8146801E4FF6FF740D
:101EB00082B2A9F10F078846B8B20B460094FFF72B
:101EC000E5FD09F10F0609F102004346B2B280B206
:101ED00019460094FFF7DAFDA8F1020083B2A8F1D9
:101EE0000F054A46A9B210460094FFF7CFFD0094B3
:101EF00008F1020008F10F0481B24A46A3B210466D
:101F0000FFF7C4FD4BF6F04AA9F1070BA3B21FFA85
:101F10008BF2A1B2B8B2CDF800A0FFF7B7FD08F17F
:101F20000700CDE900A081B2A3B2BAB2B8B2FFF700
:101F3000ADFDABB21FFA8BF2A9B2B8B2CDF800A0DA
:101F4000FFF7A4FDA8F10708ABB2BAB21FFA88F1F7
:101F5000B8B2CDF800A0FFF799FD1637A3B2B2B220
:101F6000A1B2B8B2CDF800A0FFF790FD0198A3B2DE
:101F700081B2B2B2CDF800A0B0B2FFF787FDABB22C
:101F8000B2B2A9B2B8B2CDF800A0FFF77FFD1FFA38
:101F900088F3B2B2A9B2B0B2CDF800A0FFF776FDD7
:101FA000BDE8FC9FF0B595B000244821684601F0DB
:101FB00002FA394E6D4613A912A8FFF749FF12988D
:101FC00045F8240005EB840113984862641CE4B2D0
:101FD0002021304600F079FD08B9092CEBD3092CFB
:101FE0007AD1DDE900010844029903270844DDE9BC
:101FF00003121144059A90FBF7F0114491FBF7F29C
:10200000DDE906131944089B841A194491FBF7F182
:10201000551A0E1A002C00DC6442002D00DC6D42C3
:10202000002E00DC7642022C03DD022D01DD022EA3
:1020300052DC1B4BAC4205DAA64201DA084404E04C
:10204000104402E0AE42F9DB501800EBD0704008BB
:102050001880DDE9090108440B990844DDE90C12F8
:1020600011440E9A90FBF7F0114491FBF7F2DDE971
:102070000F142144119C214491FBF7F1841A551A45
:102080000E1A002C00DC6442002D00DC6D42002E94
:1020900009DC07E00004024000080240003800406C
:1020A000040000207642022C03DD022D01DD022E09
:1020B00012DCAC4206DAA64201DA084405E010441C
:1020C00003E009E0AE42F8DB501800EBD0704008A6
:1020D0005880B04815B0F0BD0020FBE72DE9F0476F
:1020E0000C4605460988208916460A1AE388618944
:1020F00001275B1A5A43A388C01A6388591A00FB48
:10210000012001F0EBFA00221346C6E90C0101F0B0
:102110001DFB01D1002781E029882889E3880A1A5C
:1021200061895B1A5A43AB88C01A6388591A00FB4D
:10213000012001F0D3FAC6E9000121882089AB888B
:102140000A1A29895B1A5A432B88C91AA388181AB4
:1021500001FB002001F0C2FAC6E90201A988238927
:10216000894603FB01F0A288298902FB110C6088D3
:102170000CFB00FC208800FB01F8298803FB11837D
:10218000B4F806804A4303FB08C300FB19206189A9
:1021900000FB013001F0A2FAC6E9040169886889F0
:1021A000E3880A1A61895B1A5A43EB88C01A63886C
:1021B000591A00FB012001F091FAC6E906012188B5
:1021C0002089EB880A1A69895B1A5A436B88C91AF5
:1021D000A388181A01FB002001F080FAC6E9080163
:1021E0002289B5F80680A1886B8902FB08F001FB03
:1021F000130C60886D880CFB00FC20886943434306
:1022000002FB1532E38800FB181002FB03C2618950
:1022100000FB012001F062FAC6E90A013846BDE878
:10222000F0872DE9F04714460D468146D4E90C01AC
:1022300000224FF00108134601F088FA40D0688868
:1022400001F05DFAD4E9022301F067F906460F4672
:10225000288801F054FAD4E9002301F05EF93246EF
:102260003B4601F0B3F8D4E9042301F0AFF8D4E918
:102270000C2301F0C4F901F04FFAA9F800006888B6
:1022800001F03DFAD4E9082301F047F906460F466C
:10229000288801F034FAD4E9062301F03EF93246E9
:1022A0003B4601F093F8D4E90A2301F08FF8D4E912
:1022B0000C2301F0A4F901F02FFAA9F8020001E0C3
:1022C0004FF000084046AAE7F8B5002427464FF42F
:1022D00096764FF6FF750020FFF75FFB2B462EA288
:1022E0000A212C200097FFF768FC00210020401CE9
:1022F00080B2A842FBD3491C89B2B142F6D325482B
:10230000001D00EB840130F824004988FFF7CAFD66
:10231000FFF748FE0028FBD02749028821F8242037
:1023200001EB8401641C4088E4B24880032CD2D3C2
:10233000214A1848383A2049001DFFF7CFFEBDE872
:10234000F8400020FFF729BB01B5002105E00C2073
:10235000401EC0B2FCD2491C89B200988142F6D31B
:1023600008BD70B5154C05460221204600F020FF3F
:102370000028F9D02946204600F0EDFE0121204634
:1023800000F016FF0028F9D02046BDE8704000F0AC
:10239000E0BE000004000020546F75636820637283
:1023A0006F73736861697220746F2063616C696216
:1023B0007261746500000000780000200038004061
:1023C0005B2126480181818942F208021143818103
:1023D00023A001F0ADBA214904E00B881B06FCD50F
:1023E0008A80401C0278002AF7D1704703B56846FE
:1023F000FFF7F1FF00980CBD70B50D4606460024AE
:102400000BE0200703D114B119A001F091FA315D5E
:1024100018A001F08DFA641CA4B2AC42F1D3BDE85F
:10242000704016A001F084BA70B50D46064600242F
:102430000CE0A00703D114B10DA001F079FA56F811
:10244000241016A001F074FA641CA4B2AC42F0D3BC
:10245000BDE8704013A001F06BBA70470010014056
:10246000446562756720496E6974204F6B210A00CC
:102470000A00000025303258200000000A2D2D2DC2
:102480002D2D2D2D2D2D2D2D2D2D2D2D2D2D2D2D7C
:102490002D2D2D2D2D2D2D0A000000002530385812
:1024A000200000000A2D2D2D2D2D2D2D2D2D2D2D13
:1024B0002D2D2D2D2D2D2D2D2D2D2D2D2D2D2D2D4C
:1024C0002D2D2D2D0A0000000648804706480047A4
:1024D000FEE7FEE7FEE7FEE7FEE7FEE7FEE7FEE7D4
:1024E000FEE7FEE7B7320008890100088100A1F18C
:1024F000C04140B143F2D20008606FF070404860C4
:10250000C1F8040170474FF0204243F2DB00106035
:10251000F3E710B5D0E901121143D0E903231A43C0
:1025200011434269114382691143C2691143026A2E
:102530001143426A1143826A1143C26A1143026B1A
:10254000114302689200A2F1C0421160816808291B
:1025500007D101688900A1F1C0410A6842F0400238
:102560000A60416BD1E9002342EA03128B688C892F
:102570001B0243EA04431A430B8A42EA03520B7DCF
:10258000896942EA03620A4301688900A1F1C041F6
:102590004A60C16AB1F5804F08D000686FF07041A1
:1025A0008000A0F1C040C0F8041110BD816BD1E9DA
:1025B000002342EA03128B680C8A1B0243EA04538D
:1025C0001A430B7D896942EA036200680A4380006E
:1025D000A0F1C040C0F8042110BD10B500210222B6
:1025E000C0E900128160C160016141618161D20274
:1025F000C161C0E908125200C0E90A210163436BBE
:102600000F221A60436B5A60446BFF23A360446B34
:10261000E260446B2261446B6261446BA161846B34
:102620002260846B6260846BA360836BDA60836B6F
:102630001A61836B5A61806B816110BD8000A0F1CB
:10264000C0400029016802D041F0010101E0C54A03
:1026500011400160704710B5182340244FF020410D
:102660004FF0FC32102805D041F8803F4C608A6062
:10267000CA6010BD0B664C668A66CA6610BD30B56E
:10268000D0E901121143D0E903231A4311434269EF
:1026900041EA4221826941EA423141F00804C169BC
:1026A000D1E9002342EA03220B89097B1B0443EA98
:1026B00001610A43016AD1E9003543EA05230D8926
:1026C000097B2D0445EA01610B4301684FF020406E
:1026D000102904D040F8804F8260C36030BD04668A
:1026E0008266C36630BD10210160002141608160B7
:1026F000C160016141618161C269FC211160C269EF
:102700005160C2699160C269D160026A1160026A57
:102710005160026A9160006AC16070474FF02042C8
:1027200051B1102804D052F8800F40F004000AE0A4
:10273000106E40F004000AE08A49C91E102804D037
:1027400052F8800F084010607047106E0840106605
:1027500070474FF0204251B1102804D052F8800F3A
:1027600040F040000AE0106E40F040000AE07D4971
:102770003F39102804D052F8800F0840106070478D
:10278000106E0840106670474FF02041102802D0AC
:10279000D1F894007047486F70474FF020401821DF
:1027A00040F8A01F002141604FF0FC318160C16002
:1027B0000161704710B5D0E9001241EA42218268F8
:1027C000102343EA423211434FF0204242F8A01F47
:1027D000C168D1E9003443EA04230C89097B24044D
:1027E00044EA01610B4393600169D1E9003443EA93
:1027F00004230C89097B240444EA01610B43D36060
:102800004069D0E9001341EA03210389007B1B04DE
:1028100043EA00600143116110BD00210160416085
:102820008160C268FC211160C2685160C268916019
:10283000C268D160026911600269516002699160E9
:102840000269D160426911604269516042699160D8
:102850004069C16070474FF02041002851F8A00F37
:1028600002D040F0040002E03E4AD21E1040086050
:10287000704710B54FF480744FF0204372B11028A8
:1028800004D0A04205D153F8840F04E0586E0843E9
:102890000DE053F8A40F0843186010BD102804D0B1
:1028A000A04206D153F8840F05E0586E884358665D
:1028B00010BD53F8A40F8843EEE7034600204FF005
:1028C0002042102B08D0B3F5807F07D0D2F8A42087
:1028D0000A4200D001207047526EF9E7D2F88420F6
:1028E000F6E74FF02042102807D0B0F5807F08D0DF
:1028F00052F8A40F884310607047506E88435066AA
:10290000704752F8840FF5E7034600204FF020424D
:10291000102B0CD0B3F5807F0BD0D2F8A4200A4244
:1029200002EAD10102D0002900D001207047526E86
:10293000F5E7D2F88420F2E74FF02042102808D0C3
:10294000B0F5807F0AD052F8A40F20EAD1001060C1
:102950007047506E20EAD1005066704752F8840FDD
:10296000F3E70000FEFF0F00714910B5884206D161
:102970000121084600F042FA002101204FE06D4994
:10298000884206D10121022000F038FA00210220FD
:1029900045E06949884206D10121042000F02EFA61
:1029A000002104203BE06549884206D1012108202E
:1029B00000F024FA0021082031E06149884206D164
:1029C0000121102000F01AFA0021102027E05D49B3
:1029D000884206D10121202000F010FA0021202099
:1029E0001DE05949884206D10121402000F006FA35
:1029F0000021402013E05549884206D10121802062
:102A000000F0FCF90021802009E0514988420AD1F8
:102A100084150121204600F0F1F900212046BDE88F
:102A2000104000F0EBB910BDF0B5002201274FF0C7
:102A3000030C0B6807FA02F52B40AB422CD1066859
:102A400053000CFA03F4A64306600E79D0F800E0B8
:102A50009E4046EA0E0606600E79012E01D0022E37
:102A600012D18668A64386604E79D0F808E09E4071
:102A700046EA0E0686604668AE43466045688E7933
:102A80009640B6B235434560C568A543C560CC796C
:102A90009C40C3681C43C460521C102AC9D3F0BDBB
:102AA0004FF6FF7101600021017141718171C171A7
:102AB000704708B541F480320092C261C16100994B
:102AC000C161C169C069009008BD02460020126959
:102AD0000A4200D001207047006980B27047024668
:102AE000002052690A4200D001207047406980B23C
:102AF000704701837047418370470AB10183704773
:102B0000418370474161704742694A404261704762
:102B10004B07DB0E9A40C90810B500EB8100016A33
:102B20000F249C40A1430162016A1143016210BD60
:102B3000000002400004024000080240000C024075
:102B4000001002400014024000180240001C024025
:102B500000200240EA48016841F001010160E84AB2
:102B60000021083211600268E64B1A400260031D22
:102B7000E54A1A60026822F480220260E0480C30C4
:102B800001607047DE490022891C0A700870704796
:102B900002460020510901290CD002290CD0D84945
:102BA0007431096802F01F02012393400B4200D0E8
:102BB00001207047D249F4E7D1497031F1E718B5E7
:102BC00000204FF4A06400903120FFF7E1FF00994E
:102BD000491C0091A14201D00028F5D03120FFF717
:102BE000D7FF002800D0012018BDC54A116821F088
:102BF000F80141EAC00010607047C449086070479E
:102C0000BF49002270310A700A70012802D00428DE
:102C100001D1052008707047BD490860704741EA3E
:102C200082115A0810B5BB4B029C03EB02421143C0
:102C3000014341EA0460B249091D086010BDB3496F
:102C400008667047800140EA0170AD498431086030
:102C50007047AE4988667047AC49C8647047A84B56
:102C600008331A68084322F0EC621043186070477A
:102C7000A34B08331A68084322F0784210431860C7
:102C800070479F4A0832116821F003010143116027
:102C900070479B480830006800F00C007047984A65
:102CA0000832116821F0F001014311607047944A25
:102CB0000832116821F4E051014311607047904AD5
:102CC0000832116821F4604141EAC0001060704789
:102CD00070B58B4B083319688F4C11F00C0104D080
:102CE0006610042903D0082903D004601BE00660A5
:102CF00019E0834A121D1168C1F38055116801F073
:102D00003F0115B1B6FBF1F101E0B4FBF1F114683C
:102D10001268C4F388146143C2F30142521C52008A
:102D2000B1FBF2F1016019680F2202EA11117B4A2E
:102D3000545C0168E14041601C68072505EA942461
:102D4000145D21FA04F484601B6805EA5333D25CF5
:102D5000D140C16070BDC0F30121032908D1684B87
:102D6000083319686E4A21F4F81102400A431A60C8
:102D7000634970310A68C0F30B0002430A60704770
:102D800063494439086070476149403908607047B9
:102D90005E49C1F85C017047594A30320029116818
:102DA00001D0014300E0814311607047544A34323E
:102DB0000029116801D0014300E081431160704790
:102DC0004F4A38320029116801D0014300E08143A5
:102DD000116070474A4A40320029116801D001430E
:102DE00000E0814311607047454A44320029116870
:102DF00001D0014300E0814311607047404A103226
:102E00000029116801D0014300E08143116070473F
:102E10003B4A14320029116801D0014300E081438C
:102E200011607047364A18320029116801D00143F9
:102E300000E0814311607047314A20320029116857
:102E400001D0014300E08143116070472C4A2432D5
:102E50000029116801D0014300E0814311607047EF
:102E6000274A50320029116801D0014300E0814314
:102E700011607047224A54320029116801D0014381
:102E800000E08143116070471D4A583200291168E3
:102E900001D0014300E0814311607047184A60325D
:102EA0000029116801D0014300E08143116070479F
:102EB000134A64320029116801D0014300E08143C4
:102EC000116070470E4A0D320029117801D001437C
:102ED00000E081431170704709487430016841F087
:102EE0008071016070470146054A00200C3212686B
:102EF0000A4200D00120704701490E310870704726
:102F000000380240FFFFF6FE103000240000474268
:102F1000800E47420000FFFF0024F400180000204C
:102F2000FFFCFF0FB64910B588420AD18414012175
:102F30002046FFF78BFF2046BDE810400021FFF739
:102F400085BFB049884202D10121041404E0AE4992
:102F500088420AD10121C4132046FFF76DFF2046A5
:102F6000BDE810400021FFF767BF10BD30B50288F3
:102F70004C8802F441530A88CD8822438C882C4324
:102F800022430C8922434C8922438C892243CC89D9
:102F900022431A430280828B22F400628283098AD0
:102FA000018230BDF0B502220023858B01244FF24F
:102FB0004006354085830284858B8E68022E38D08A
:102FC0008A8802B10224914A13681B0203D5136850
:102FD00023F4000313608D4A7C3213681268C3F334
:102FE00088138A4EC2F30272361F3668884F06F085
:102FF0003F06B7FBF6F65E43B6FBF2F2CB88B3F5BD
:10300000007F2BD06301B2FBF3F202EB82028B68EC
:103010005200B2FBF3F2521D92B20A23B2FBF3F25A
:1030200002F00103D21A4FF6FF74C2F34F0204EA12
:103030000323941EFE2C01D302220023CC881A43C2
:10304000144304840A884B881A438B8889890B436C
:103050001A432A4342F400618183F0BD120AD4E787
:103060000021018041808180C18001814181818175
:10307000C181072101827047002101804180818048
:10308000C18002228260818170470029018802D0BC
:1030900041F0400101E021F040010180704700292A
:1030A000818B02D041F4806101E021F48061818351
:1030B0007047028822F40062028002880A4302807C
:1030C0007047B1F5804F018803D021F48041018021
:1030D000704741F48041FAE7A1F57E420188FF3A4A
:1030E00002D041F4807101E021F4807101807047C9
:1030F0000029818802D041F0040101E021F004019F
:10310000818070470029818802D041F0100101E0E0
:1031100021F010018180704730B5828B00234FF27F
:1031200040042240828302220284848B0A884FF466
:103130008075B2F5007F00D002B92B464A888D8891
:1031400089892A4319430A43224342F40061818357
:1031500030BD80897047818170470029018802D085
:1031600041F4005101E021F40051018070470188D1
:1031700041F4805101807047012901D0008B7047D4
:10318000808A7047008A7047002A828801D00A43EB
:1031900000E08A4382807047090901238B40002A9E
:1031A000828899B201D00A4300E08A438280704746
:1031B0000246002012890A4200D001207047C9430C
:1031C0000181704730B501F00F030125024605FA71
:1031D00003F40020A3B2090905FA01F49188A4B20E
:1031E000128921401A4202D0002900D0012030BDAE
:1031F00001F00F0201219140C94301817047000095
:103200000030014000380040003C004008380240D7
:1032100000127A000CB50022514900920192086810
:1032200040F4803008604FF4A063086800F4003078
:1032300001900098401C0090019810B900989842A5
:10324000F3D10868800334D5012001904448403010
:10325000026842F0805202604248026842F48042B2
:1032600002603F48083002680260026842F400428F
:103270000260026842F4A0520260031F3A4A1A60D8
:103280000A6842F080720A600A689201FCD53749E8
:1032900040F205620A60016821F0030101600168E3
:1032A00041F0020101600168C1F381010229FAD1F4
:1032B0000CBD01920CBD2A4810B5016841F0010116
:1032C0000160274A0021083211600268284B1A4029
:1032D0000260031D274A1A60026822F480220260FD
:1032E0001F480C300160FFF795FF23494FF0006045
:1032F000086010BD70B51A4D083528681F4B20496D
:1033000010F00C0004D05E10042803D0082803D06D
:103310000B601BE00E6019E0114A121D1068C0F32B
:103320008054106800F03F0014B1B6FBF0F001E0EB
:10333000B3FBF0F013681268C3F388135843C2F369
:103340000142521C5200B0FBF2F0086028680C4A9F
:10335000C0F30310121D105C0A68C2400A6070BD01
:10336000003802400070004008544007003C024012
:10337000FFFFF6FE1030002408ED00E00024F4000A
:103380002800002040EA01039B0703D009E008C998
:10339000121F08C0042AFAD203E011F8013B00F81A
:1033A000013B521EF9D27047D2B201E000F8012B66
:1033B000491EFBD270470022F6E710B513460A46B5
:1033C00004461946FFF7F0FF204610BD2DE9FE4FD9
:1033D000804681EA0300C00F0C46009021F00041B6
:1033E00023F00045B8EB0200A94105D24046214632
:1033F00090461C460B46024623F00040104347D03F
:10340000270DC7F30A00C3F30A510290401A019036
:1034100040286BDAC3F3130040F4801B00989246F7
:1034200020B10023D2EB030A63EB0B0B0198594642
:10343000C0F14002504600F0D2F906460D46504613
:103440005946019A00F0EAF910EB080061410024A6
:1034500087EA115284EAE7731A4340D0009A62B3B4
:10346000019A012A4FEA075215DC001B61EB0201A9
:103470004FF0004202EA0752CDE90042001C41F53C
:10348000801132462B4600F0EAF903B0BDE8F08F18
:1034900040462146F9E7001B61EB0201001C41F5A3
:1034A000801300185B412018A2F5001747EB0301B9
:1034B00040EAD570B6196D4111E06D084FEA360645
:1034C00045EAC0754FEA0752001B61EB0201001C80
:1034D00041F5801149084FEA300000195141324648
:1034E0002B4603B0BDE8F04F00F0AAB900980122C6
:1034F00040000023D0EB020263EBE073009821460A
:103500004FEAE074B8EB000061EB0401E9E783F0F7
:1035100000435BE781F0004158E72DE9FE4F81EA67
:10352000030404F0004421F0004100944FF0000B2C
:1035300023F0004350EA01045ED052EA03045BD05A
:10354000C3F30A54C1F30A552C44A4F2F334019492
:10355000A0FB0254C1F3130141F48011C3F3130320
:1035600043F4801301FB024400FB034E840A970AD4
:1035700044EA815447EA8357A4FB076802958D0A01
:1035800005FB07854FEA932C04FB0C542705029D8D
:103590004FEA065847EA1637B5EB08056EEB070CFD
:1035A000870E920E47EA811742EA8312A7FB0201B7
:1035B000B6EB0B0164EB00042B0D43EA0C335E18F1
:1035C00044EB1C50DA465146E7FB0201C5F31304F5
:1035D0004FEA0B3343EA14534FEA0432019C43EAA7
:1035E0000603A4F10C040294009CCDE900B400F0A1
:1035F00036F903B0BDE8F08F00200146F9E72DE968
:10360000F04D81EA030404F0004B21F0004514461C
:103610004FF0000A23F0004150EA050220D054EA9E
:1036200001021DD0C5F30A570246C5F31303C1F3C7
:103630001300C1F30A5640F4801543F48013A7EB3E
:103640000608101BD64608F2FD3873EB050002D3BE
:1036500008F1010801E092185B41B8F1000F03DAAC
:1036600000200146BDE8F08D00204FF48011064691
:1036700084460EE0171B73EB050705D3121B63EBA3
:10368000050306434CEA010C49084FEA3000921842
:103690005B4150EA0107EDD152EA030012D082EA01
:1036A000040083EA0501084305D0101BAB4106D294
:1036B0000122002306E000224FF0004302E06FF0F9
:1036C000010253101AEB06004CEB085110EB0A00F4
:1036D00041EB0B01BDE8F04D00F0B2B80EB5C10FE3
:1036E00080EAE0700844CA07002140F233438DE8C5
:1036F0000E000A460B4600F0B2F803B000BD0EB54E
:1037000040F2334102910021CDE900110A460B46F7
:1037100000F0A5F803B000BDC1F30A5210B5C1F323
:10372000130140F2FF3341F480119A4201DA002084
:1037300010BD40F233439A42A2F2334203DC5242BC
:1037400000F05CF810BD904010BD000030B5041EC4
:1037500071F1000404DB4FF00044404264EB0101CE
:10376000141E73F1000405DB1C464FF00043524267
:1037700063EB04038B4208BF824230BD2DE9F05F4A
:103780000546002092469B468846064681464024D0
:103790001BE0284641464746224600F02FF8534694
:1037A0005A46C01A914110D311461846224600F0DD
:1037B00016F82D1A67EB01084F462246012000211A
:1037C00000F00DF817EB00094E41201EA4F1010492
:1037D000DFDC484631462A464346BDE8F09F202AB2
:1037E00004DB203A00FA02F1002070479140C2F158
:1037F000200320FA03F3194390407047202A04DB8A
:10380000203A21FA02F00021704721FA02F3D04059
:10381000C2F120029140084319467047202A06DB76
:10382000CB17203A41FA02F043EAE07306E041FA8E
:1038300002F3D040C2F1200291400843194670477C
:1038400010B5141E73F1000408DA401C41F10001A8
:1038500092185B411A4301D120F0010010BD2DE9FF
:10386000F04D92469B4611B1B1FA81F202E0B0FAF6
:1038700080F220329046FFF7B2FF04460F4640EA3E
:103880000A0041EA0B0153465A46084313D0114639
:1038900053EA010019D0C8F140025046FFF7AEFFCD
:1038A00005460E46504659464246FFF798FF0843E4
:1038B00005D0012004E020463946BDE8F08D002007
:1038C000054346EAE0762C4337430A986305E40A49
:1038D000A0EB08000022FD0A44EA47540A3002D552
:1038E00000200146E9E7010510196941DDE90845B5
:1038F00000196941BDE8F04DA2E70000064C074DF4
:1039000006E0E06840F0010394E8070098471034AF
:10391000AC42F6D3FCF73CFCC4430008E443000887
:103920004FF0DA4210800148018070470000016DBD
:103930000FB4054B10B503A9044A029800F018F81B
:1039400010BC5DF814FB0000ED2300083C000020D3
:1039500002E008C8121F08C1002AFAD17047704758
:10396000002001E001C1121F002AFBD170470000B6
:103970002DE9FF4F8DB00F460546002606E02528AD
:103980000BD0DDE90F1290476D1C761C28780028BB
:10399000F5D111B03046BDE8F08F0024A246A14613
:1039A0000122EC4900E0044315F8013F203B02FAF4
:1039B00003F00842F7D128782A2810D06FF02F02A0
:1039C0002878A0F13001092914D80AEB8A0102EB0A
:1039D000410144F0020400EB010A6D1CF0E701CF45
:1039E0005FEA000A03D544F40054CAF1000A44F027
:1039F00002046D1C28782E2817D115F8010F44F009
:103A000004042A280ED06FF02F022878A0F130018C
:103A100009290AD809EB890102EB410100EB0109F0
:103A20006D1CF2E757F8049B6D1C28786C280FD0AA
:103A300006DC4C2817D068280DD06A2814D104E081
:103A4000742810D07A280FD10DE044F400140AE055
:103A500044F4801401E044F440146978814202D1B6
:103A600004F580146D1C6D1C2A786E2A1FD00CDCA6
:103A7000632A31D004DC002A8BD0582A11D1A3E06C
:103A8000642A68D0692A0CD165E0732A2ED004DC40
:103A90006F2A73D0702A04D19BE0752A6FD0782AE0
:103AA0006ED01046DDE90F129047761C50E1C4F34A
:103AB0000250022806D0032809D0042801CF09D0DB
:103AC000066045E101CFF117C0E9006140E101CF97
:103AD00006803DE106703BE117F8040B8DF800000D
:103AE00000208DF80100EB46012003E057F804BBED
:103AF0004FF0FF3061074FF0000102D40DE008F1F4
:103B00000101884649450FDA8045F8DB1BF80810AB
:103B10000029F4D108E008F1010188468142FADB6E
:103B20001BF808100029F6D1DDE90F23AAEB0800E5
:103B30008146214600F036F9304400EB080604E0E7
:103B4000DDE90F121BF8010B9047B8F10108F7D21D
:103B500021464846F7E00A21C4F302534FF0000B18
:103B60000891022B04D001CFC117032B09D00AE022
:103B7000FF1D27F00707F7E8020108E032E01FE029
:103B800020E000B2C117042B01D140B2C117031EBF
:103B900071F1000307DA4FF0000CD0EB0C006CEB76
:103BA00001012D2302E0230504D52B238DF82430B9
:103BB000012303E0E30701D02023F7E7984658E00C
:103BC0000A2110E010210EE010204FF0000B0890A9
:103BD0000CE010214FF0000B44F004044FF00809F2
:103BE000089103E008214FF0000B0891C4F3025341
:103BF000022B04D001CF0021032B06D006E0FF1DCD
:103C000027F00707F7E8020103E080B2042B00D198
:103C1000C0B24FF0000823072BD5702A07D0DDF87B
:103C200020C08CF0100C5CEA0B0C05D00EE0402399
:103C30008DF82430012308E050EA010306D0302338
:103C40008DF824308DF8252002239846DDF820C019
:103C50008CF0080C5CEA0B0C0BD150EA010301D18B
:103C6000630706D530238DF824304FF00108A9F101
:103C70000109582A04D038A20B9208AA0A920BE034
:103C80003AA2F9E75B46089AFFF778FD0B9B9B5C2D
:103C90000A9A521E0A92137050EA0102F2D10A984F
:103CA000ADEB000000F1200B600702D524F4803456
:103CB00001E04FF00109D94502DDA9EB0B0000E05E
:103CC000002000EB0B0141440890AAEB010AE0033D
:103CD00006D4DDE90F232146504600F063F8064480
:103CE0004FF0000908E009A911F80900DDE90F12F9
:103CF000904709F10109761CC145F4DBE0030CD5BE
:103D0000DDE90F232146504600F04CF8064404E05C
:103D1000DDE90F1230209047761C0899481E089064
:103D20000029F5DC08E00A980A990078491C0A91F4
:103D3000DDE90F129047761CBBF10001ABF1010BDE
:103D4000F1DC21465046DDE90F2300F019F8064466
:103D50006D1C1BE60928010030313233343536370B
:103D600038396162636465660000000030313233C7
:103D70003435363738394142434445460000000067
:103D80002DE9F041044600251E461746880404D458
:103D900005E039462020B0476D1C641EF9D5284641
:103DA000BDE8F0812DE9F041044600251E4690460D
:103DB000C80301D5302700E02027880404D505E09A
:103DC00041463846B0476D1C641EF9D52846BDE80B
:103DD000F081000000000000000000000000000072
:103DE0000000000000183C3C3C18180018180000A7
:103DF0000000000000666666000000000000000091
:103E0000000000000036367F3636367F363600003A
:103E100000000018183C666030180C06663C181844
:103E20000000000070D8DA760C18306E5B1B0E00B4
:103E30000000000000386C6C38606F66663B000064
:103E4000000000000018181800000000000000002A
:103E500000000000000C1818303030303018180CFA
:103E600000000000003018180C0C0C0C0C18183056
:103E700000000000000000361C7F1C36000000001F
:103E80000000000000000018187E18180000000054
:103E90000000000000000000000000001C1C0C18C6
:103EA0000000000000000000007E00000000000094
:103EB0000000000000000000000000001C1C0000CA
:103EC000000000000006060C0C181830306060007E
:103ED00000000000001E333737333B3B331E000029
:103EE00000000000000C1C7C0C0C0C0C0C0C0000E6
:103EF00000000000003C6666060C1830607E000082
:103F000000000000003C6666061C0666663C000079
:103F100000000000003030363636667F06060000AE
:103F200000000000007E6060607C06060C780000E7
:103F300000000000001C18307C666666663C0000CD
:103F400000000000007E060C0C1818303030000015
:103F500000000000003C6666763C6E66663C000031
:103F600000000000003C666666663E0C18380000E3
:103F7000000000000000001C1C0000001C1C0000D1
:103F8000000000000000001C1C0000001C1C0C189D
:103F90000000000000060C18306030180C0600000D
:103FA00000000000000000007E007E000000000015
:103FB00000000000006030180C060C183060000093
:103FC00000000000003C66660C181800181800007D
:103FD00000000000007EC3C3CFDBDBCFC07F00004A
:103FE0000000000000183C6666667E66666600009B
:103FF00000000000007C6666667C6666667C0000E9
:1040000000000000003C666660606066663C000080
:104010000000000000786C66666666666C780000DA
:1040200000000000007E6060607C6060607E0000D8
:1040300000000000007E6060607C606060600000E6
:1040400000000000003C666660606E66663E000030
:104050000000000000666666667E666666660000B2
:1040600000000000003C181818181818183C000030
:10407000000000000006060606060666663C000014
:10408000000000000066666C6C786C6C6666000070
:10409000000000000060606060606060607E0000A2
:1040A00000000000006363776B6B6B636363000069
:1040B00000000000006363737B6F6763636300004D
:1040C00000000000003C666666666666663C0000AE
:1040D00000000000007C6666667C60606060000036
:1040E00000000000003C666666666666663C0C067C
:1040F00000000000007C6666667C6C6666660000F8
:1041000000000000003C666030180C06663C0000B1
:1041100000000000007E1818181818181818000061
:10412000000000000066666666666666663C000023
:104130000000000000666666666666663C18000061
:1041400000000000006363636B6B6B363636000063
:10415000000000000066663418182C6666660000D1
:104160000000000000666666663C1818181800001B
:1041700000000000007E06060C183060607E000023
:1041800000000000003C3030303030303030303013
:104190003C000000006060303018180C0C0606006F
:1041A00000000000003C0C0C0C0C0C0C0C0C0C0C5B
:1041B0003C0000183C660000000000000000000009
:1041C00000000000000000000000000000000000EF
:1041D000FF00000000181818000000000000000098
:1041E000000000000000003C06063E66663E00003F
:1041F000000000000060607C66666666667C000009
:10420000000000000000003C66606060663C00004A
:10421000000000000006063E66666666663E000018
:10422000000000000000003C66667E60603C00000C
:1042300000000000001E3030307E30303030000092
:10424000000000000000003E66666666663E0606E8
:104250007C0000000060607C666666666666000042
:10426000000000001818007818181818187E0000B0
:10427000000000000C0C003C0C0C0C0C0C0C0C0C8A
:104280007800000000606066666C786C666600000E
:10429000000000000078181818181818187E000080
:1042A000000000000000007E6B6B6B6B6B63000016
:1042B000000000000000007C66666666666600001E
:1042C000000000000000003C66666666663C000078
:1042D000000000000000007C66666666667C606028
:1042E000600000000000003E66666666663E0606E8
:1042F00006000000000000666E70606060600000F4
:10430000000000000000003E60603C06067C0000EB
:10431000000000000030307E30303030301E0000B1
:10432000000000000000006666666666663E0000EB
:104330000000000000000066666666663C1800002B
:1043400000000000000000636B6B6B6B36360000F2
:104350000000000000000066663C183C6666000035
:10436000000000000000006666666666663C0C1889
:10437000F00000000000007E060C1830607E000097
:1043800000000000000C1818183060301818180CC5
:104390000000000000181818181818181818181815
:1043A0001800000000301818180C060C18181830E7
:1043B000000000000071DB8E000000000000000023
:1043C00000000000E443000800000020400000005E
:1043D0005039000824440008400000204804000030
:1043E0006039000800000000000000001E002D00E1
:1043F000FA004600A000D20000000000000000000B
:10440000010203040102030406070809007A030AF3
:104410000000000000000000010203040607080974
:044420000000000098
:040000050800018965
:00000001FF
